:100000000C946A000C9492000C9492000C94760369
:100010000C9476030C9476030C9492000C9492004A
:100020000C9492000C9492000C9492000C944E0646
:100030000C9492000C9492000C9492000C949200F8
:100040000C942C030C9492000C94610D0C943B0DB9
:100050000C9492000C9492000C9492000C949200D8
:100060000C949E040C949200760B9D0B640BB10BC8
:10007000D10B050CF90B050C050C050C340C860B8B
:1000800000000000240027002A00000000002500D6
:1000900028002B00040404040404040402020202E5
:1000A000020203030303030301020408102040803B
:1000B00001020408102001020408102000000008BA
:1000C000000201000003040700000000000000001F
:1000D000A618D51411241FBECFEFD8E0DEBFCDBFC8
:1000E00012E0A0E0B1E0E2E5F7E302C005900D9276
:1000F000AC32B107D9F725E0ACE2B2E001C01D9205
:10010000AE3BB207E1F710E0C9E6D0E004C02197AA
:10011000FE010E94331AC836D107C9F70E94D614CF
:100120000C949C1B0C940000FC01918D228D892F56
:1001300090E0805C9F4F821B91098F7399270895EF
:1001400080E090E0892B29F00E94C60C81110C946C
:10015000000008953FB7F8948091D4029091D502A1
:10016000A091D602B091D70226B5A89B05C02F3F1B
:1001700019F00196A11DB11D3FBFBA2FA92F982FCD
:100180008827820F911DA11DB11DBC01CD0142E048
:10019000660F771F881F991F4A95D1F70895E09140
:1001A0003203F0913303309709F009940895862FB4
:1001B000642FE0913003F0913103309711F0A901E1
:1001C000099408950895862FE0912803F09129035A
:1001D000309711F0BA0109940895862FE0912A030F
:1001E000F0912B03309711F0BA0109940895862FEE
:1001F000E0912403F0912503309711F0BA0109949E
:100200000895862FE0912603F0912703309711F08F
:10021000BA0109940895862FE0912C03F0912D03E3
:10022000309711F0BA0109940895862FE0912E03BA
:10023000F0912F03309711F0BA010994089585EDDC
:100240008093BC008091BC0084FDFCCF10929B0386
:1002500008954091AC02262F30E0240F311D213249
:100260003105DCF420919B032430C9F4FC0180E0CB
:1002700090E0861758F43091AC022191DC01A6572A
:10028000BD4FA30FB11D2C930196F3CF8091AC020B
:10029000680F6093AC0280E0089581E0089582E0E9
:1002A00008950895E091880280918702E81730F45C
:1002B000F0E0E959FD4F808190E008958FEF9FEFC6
:1002C00008959091880280918702981750F4E92F41
:1002D000F0E0E959FD4F208130E09F5F9093880264
:1002E00002C02FEF3FEFC90108958091870290E08F
:1002F00020918802821B91090895CF92DF92EF929C
:10030000FF920F931F93CF93DF937C01262F972F9C
:100310008A0180919C03882391F0C62FD72F6E010C
:10032000C40ED51ECC15DD0571F06991D701ED9194
:10033000FC910190F081E02DC7010995F3CF642F66
:10034000822F0E942901C801DF91CF911F910F9147
:10035000FF90EF90DF90CF900895CF93DF931F929F
:10036000CDB7DEB7698320919C032223D1F0209181
:10037000BF03203240F021E030E0FC0133832283D0
:1003800080E090E015C080919D03E82FF0E0E256F8
:10039000FC4F998190838F5F80939D038093BF036F
:1003A00005C061E0CE0101960E94290181E090E044
:1003B0000F90DF91CF910895089580E090E0089527
:1003C000009721F0805C9F4F0C94F21308950F93D7
:1003D0001F93CF93DF9381E0809346028091450283
:1003E000882329F0109245028FEF8093000110922C
:1003F0003703109234031092420210923803109285
:100400003503109243021092390310923603109272
:1004100044020EE212E0C0E0DFEF82EF8C0F863084
:1004200018F462E070E006C08EEF8C0F823128F481
:1004300061E070E08C2F0E94D10AF801D1938F0106
:10044000CF5FC43151F71092670310926603109288
:100450002D0210922C0210924602DF91CF911F9133
:100460000F910895FC01848DDF01A80FB11DA35ADF
:10047000BF4F2C91848D90E001968F739927848FC4
:10048000A689B7892C93A089B1898C9180648C93BB
:10049000938D848D981306C00288F389E02D8081A6
:1004A0008F7D8083089590E0FC01E454FF4F3491E8
:1004B000FC01E855FF4F2491FC01EC56FF4FE491FD
:1004C000EE2309F43BC0332339F1333091F038F493
:1004D0003130A9F0323001F584B58F7D12C037304C
:1004E00091F03830A1F03430B9F4809180008F7DE4
:1004F00003C0809180008F77809380000DC084B509
:100500008F7784BD09C08091B0008F7703C0809140
:10051000B0008F7D8093B000F0E0EE0FFF1FE65734
:10052000FF4FA591B4918FB7F894EC91611103C07E
:1005300020952E2301C02E2B2C938FBF0895CF938F
:10054000DF9390E0FC01E855FF4F2491FC01EC564D
:10055000FF4F8491882361F190E0880F991FFC017F
:10056000E058FF4FC591D491FC01E657FF4FA5918C
:10057000B491611109C09FB7F894888120958223B6
:100580008883EC912E230BC0623061F49FB7F894FE
:100590003881822F809583238883EC912E2B2C9396
:1005A0009FBF06C08FB7F894E8812E2B28838FBF9A
:1005B000DF91CF9108958E3008F08E50877080645F
:1005C00080937C0080917A00806480937A0080918F
:1005D0007A0086FDFCCF809178002091790090E030
:1005E000922B08958F929F92AF92BF92CF92DF92FB
:1005F000EF92FF926B017C010E94AA004B015C010B
:10060000C114D104E104F104F1F00E94AA00DC015C
:10061000CB0188199909AA09BB09883E9340A10515
:10062000B10570F321E0C21AD108E108F10888EEA3
:10063000880E83E0981EA11CB11CC114D104E104F2
:10064000F10419F7DDCFFF90EF90DF90CF90BF90CE
:10065000AF909F908F9008951F920F920FB60F92B8
:1006600011242F933F938F939F93AF93BF938091C8
:100670003A0390913B03A0913C03B0913D0330912C
:10068000D30223E0230F2D3720F40196A11DB11DC5
:1006900005C026E8230F0296A11DB11D2093D302A9
:1006A00080933A0390933B03A0933C03B0933D03A4
:1006B0008091D4029091D502A091D602B091D70238
:1006C0000196A11DB11D8093D4029093D502A093F1
:1006D000D602B093D702BF91AF919F918F913F9176
:1006E0002F910F900FBE0F901F9018951F920F9291
:1006F0000FB60F9211240F900FBE0F901F901895F8
:100700002F923F925F926F927F928F929F92AF92C1
:10071000BF92CF92DF92EF92FF920F931F93CF93EE
:10072000DF937C013901DA015C90232B19F46624F4
:100730006A94762C8A011A01260E371EC0E0D0E09A
:10074000812C912C87E0C82ED12C0215130509F4B9
:1007500044C08614970408F068C05801F7018081EE
:100760009181FC01A081B181F80121918F01E22FDB
:100770000C2E01C0EE0F0A94EAF7652D6E2B6F77F1
:10078000ED91FC9109958FEF881A980AD5016C912B
:1007900070E0C6018C1B9D0B02C0759567958A950C
:1007A000E2F7562E2196C730D10578F286149704C9
:1007B00061F2F70180819181DC01ED91FC91652D61
:1007C0006F770190F081E02D0995BFEF8B1A9B0A9E
:1007D000551C5524551C2797E6CF209731F18614D8
:1007E000970418F5F70180819181DC01ED91FC916E
:1007F00061E070E001C0660FCA95EAF761506521BB
:100800000190F081E02DDF91CF911F910F91FF902A
:10081000EF90DF90CF90BF90AF909F908F907F90A0
:100820006F905F903F902F900994DF91CF911F912F
:100830000F91FF90EF90DF90CF90BF90AF909F907F
:100840008F907F906F905F903F902F900895DF92F0
:10085000EF92FF920F931F93CF93DF93FC01E05829
:10086000FF4FD080DD2009F45CC0319600811181FA
:10087000D8011196FC901197EC90EC01C05CDF4F11
:1008800088819981009709F44CC0DC01ED91FC91BD
:100890000190F081E02D60EF099588819981DC015C
:1008A000ED91FC910190F081E02D69E70995888137
:1008B0009981DC01ED91FC910190F081E02D6E2D8C
:1008C000099588819981DC01ED91FC910190F0817D
:1008D000E02D6F2D09957801B2E0EB0EF11C0D0DA6
:1008E000111DE016F10661F020E030E0A70161E0A3
:1008F00070E0CE010E948003EFEFEE1AFE0AF1CF06
:1009000088819981DC01ED91FC910190F081E02DCD
:1009100067EFDF91CF911F910F91FF90EF90DF90E4
:100920000994DF91CF911F910F91FF90EF90DF908D
:100930000895009711F00C94270408951F920F92C8
:100940000FB60F9211242F933F934F935F936F93A2
:100950007F938F939F93AF93BF93EF93FF93809178
:10096000B900887F803609F49CC068F5883209F4A4
:100970005BC090F4803109F454C038F4882309F442
:10098000F6C0883009F44DC0F6C0883109F44CC077
:10099000803209F45DC0EFC0803409F468C048F4C7
:1009A000803309F455C0883309F0E5C0809399037A
:1009B000D8C0803509F44FC0883509F45DC088344B
:1009C00009F0D9C0D6C0883909F4C7C0A8F488375F
:1009D00009F467C038F4883609F463C0803709F435
:1009E00060C0C9C0883809F4B8C0803909F45FC054
:1009F000803809F0C0C05BC0803B09F486C038F481
:100A0000803A09F466C0883A09F47FC0B4C0803CDB
:100A100009F4A7C0883C09F4A4C0883B09F48AC043
:100A2000AAC08091760310C090919803809197039B
:100A3000981770F5E091980381E08E0F80939803EA
:100A4000F0E0E958FC4F80818093BB0085EC86C0C4
:100A5000809399038EC0E091980381E08E0F80937C
:100A600098038091BB00F0E0E958FC4F808390919F
:100A70009803809197036EC0E091980381E08E0FF8
:100A8000809398038091BB00F0E0E958FC4F80838D
:100A900080919A0381116DC081E08093750384EA8F
:100AA00061C083E080939B031092D002CFCF8091EE
:100AB000D002803208F051C0E091D00281E08E0F68
:100AC0008093D0028091BB00F0E0E055FD4F808321
:100AD000BDCF85EC8093BC0010929B038091D00227
:100AE000803230F4E091D002F0E0E055FD4F10820A
:100AF0006091D00270E0E091AE02F091AF0280EB25
:100B000092E009951092D00236C084E080939B0356
:100B10001092AD021092AC02E091AA02F091AB02E9
:100B200009958091AC02811105C081E08093AC02EF
:100B300010928A02E091AD0281E08E0F8093AD02A7
:100B4000F0E0E657FD4F80818093BB009091AD02AD
:100B50008091AC02981708F479CF85E88093BC00A7
:100B60000AC085EC8093BC0010929B0304C01092D5
:100B700099030E941F01FF91EF91BF91AF919F9147
:100B80008F917F916F915F914F913F912F910F9036
:100B90000FBE0F901F901895DF92EF92FF920F9368
:100BA0001F93CF93DF93EC01D62E7A0189018881C0
:100BB0008C3008F06AC061E08D2D0E949F02888110
:100BC000E82FF0E09F01220F331FE20FF31FEF58D1
:100BD000FA4F9D2D9F732081207CD22ED92AD0825E
:100BE00060E272E0AB014E195F0957FF02C04D5F32
:100BF0005F4F5595479555954795498340E659E090
:100C00009A01201B310B37FF02C02D5F3F4F3595F6
:100C10002795359527952A836CE00E94271A9CE03A
:100C2000899FB001112440E050E09A01260F371F40
:100C3000F901EE0FFF1F2E0F3F1FF901EF58FA4F7A
:100C4000908196FD16C04F5F5F4F4C30510569F79C
:100C500081110FC01092800082E080938100109279
:100C6000850010928400B19A80916F008260809319
:100C70006F00E881F0E0CF01880F991FE80FF91F9E
:100C8000EF58FA4F8081806480838881DF91CF9113
:100C90001F910F91FF90EF90DF9008951F920F9298
:100CA0000FB60F9211242F933F934F935F936F933F
:100CB0007F938F939F93AF93BF93EF93FF93809115
:100CC000890287FF05C010928500109284001BC026
:100CD00020918902022E000C330B8091950590E043
:100CE0002817390784F480918902082E000C990B8B
:100CF000FC01EE0FFF1F8E0F9F1FFC01EF58FA4FF4
:100D0000808186FD15C0809189028F5F8093890262
:100D100020918902022E000C330B8091950590E002
:100D200028173907C4F4809189028C3064F113C00C
:100D300080918902082E000C990BFC01EE0FFF1F19
:100D40008E0F9F1FFC01EF58FA4F808160E08F7378
:100D50000E945302D8CF8091840090918500049620
:100D600080349C4918F480E49CE905C0809184009B
:100D700090918500049690938900809388008FEF6E
:100D8000809389023BC0209184003091850080913E
:100D90008902082E000C990BFC01EE0FFF1F8E0F2D
:100DA0009F1FFC01EF58FA4F81819281820F931FA0
:100DB000909389008093880080918902082E000C0E
:100DC000990BFC01EE0FFF1F8E0F9F1FFC01EF58C8
:100DD000FA4F808186FF12C080918902082E000C94
:100DE000990BFC01EE0FFF1F8E0F9F1FFC01EF58A8
:100DF000FA4F808161E08F730E945302FF91EF915F
:100E0000BF91AF919F918F917F916F915F914F9122
:100E10003F912F910F900FBE0F901F901895880F44
:100E2000991F880F991F20916402E0916502F0914B
:100E30006602E80FF91FE20FF11D70832091630233
:100E4000E0916502F0916602E80FF91FE20FF11DD3
:100E5000608320916202E0916502F0916602E80FE2
:100E6000F91FE20FF11D5083209165023091660257
:100E7000F901E80FF91F408380E0089510926102A4
:100E80001092600210925F02EFE4F2E0A7E4B2E099
:100E9000119211921D9282E0EF35F807C9F708957B
:100EA000CF93863080F5409166035091670321E02F
:100EB00030E0672B81F4B90102C0660F771F8A9575
:100EC000E2F7CB0180959095842395239093670357
:100ED0008093660318C0082E02C0220F331F0A94A5
:100EE000E2F7242B352B3093670320936603909110
:100EF0004602911108C0C82F0E94DB02BC018C2F52
:100F0000CF910C943513CF910895BF92CF92DF9279
:100F1000EF92FF920F931F93CF93DF9300D0CDB743
:100F2000DEB7833008F081C0282F220F220F220F56
:100F3000285F253108F024E1B62EF82EE82EEE0CBD
:100F4000EE0CEE0C30E0CC24C394E21610F58EEFDC
:100F50008E0D8231D8F40E2D10E0F801E052FB4FD7
:100F60009081923098F4DD24D3948C2D8B2109F458
:100F7000D12C000F111F913009F043C03C29F8011A
:100F8000EC50FB4F8D2D90E091838083CC0CE3944B
:100F9000DCCFF1100AC03C7FF8948BB1632F6095D1
:100FA00068233B21632B6BB92AC081E0F8121AC079
:100FB0002B2D2323F89495B1832F8F73809589234C
:100FC000922F9F73892B85B988B1229526952695F6
:100FD0002370329536953695337030958323822B66
:100FE00088B90DC03F70F89488B1632F660F660F03
:100FF000609568233B21330F330F632B68B97894D6
:1010000014C0DD2009F4BBCFF801EC50FB4F808108
:101010009181019709F4B3CF62E08E2D2A83398341
:101020000E949F022A813981AACF0F900F90DF91F1
:10103000CF911F910F91FF90EF90DF90CF90BF90D5
:1010400008956F927F928F929F92AF92BF92CF92AC
:10105000DF92EF92FF920F931F93CF93DF931F9234
:10106000CDB7DEB7982F3B01843108F004C1082FBB
:1010700010E0F801E052FB4F8081833009F490C00A
:10108000843009F0F8C09250923108F0EDC0F801B8
:10109000E25DFD4FE080F12C6701CC0CDD1C60327D
:1010A00082E078070CF042C077FD05C0653B710512
:1010B00024F4DB0104C0A0E001C0A4EBB0E0F60121
:1010C000EE0DFF1DEA56FA4F818128E830E0490114
:1010D000881A910887FD9394880C991C880C991C98
:1010E000092C000CAA08BB08828128E532E0281BE5
:1010F000310987FD3395220F331F220F331FA901BA
:10110000330F660B770B9A01AB01281939094A098D
:101110005B090E94EE1924EB30E040E050E00E94B1
:10112000C419820E931EA41EB51E01C04B01F60108
:10113000EE0DFF1DEA56FA4F20812C3008F094C0C6
:10114000318188E890E0831B910937FD9395880FE2
:10115000991F880F991F8816990684F0828148E5A7
:1011600052E0481B510987FD5395440F551F440F0A
:10117000551FC401481559050CF4CA010297880F80
:10118000991F4FB7F89430E0F901EE0FFF1F2E0FB3
:101190003F1FF901EF58FA4F928381834FBF64C01C
:1011A000933049F08BEF890F823028F087EF890F59
:1011B000833008F059C061E0892F99830E949F0213
:1011C00099816114710411F460E005C08FEF681615
:1011D000710429F461E0892F0E94530245C0F8018F
:1011E000E454FF4FE491E330F9F048F4E130B9F012
:1011F000E230A1F584B5806284BD68BC35C0E730BB
:10120000E9F0E83019F1E43049F58091800080621E
:101210008093800070928B0060928A0025C084B514
:10122000806884BD67BC20C0809180008068809306
:101230008000709289006092880016C08091B00092
:1012400080688093B0006092B3000EC08091B000BF
:1012500080628093B0006092B40006C080E8681697
:1012600071040CF0B7CFB0CF000F111FF801EC5094
:10127000FB4F718260820F90DF91CF911F910F9190
:10128000FF90EF90DF90CF90BF90AF909F908F90A6
:101290007F906F9008959EEF980F923180F4E82F21
:1012A000F0E0DF01A052BB4F9C91913041F4EE0F72
:1012B000FF1FEC50FB4F608371830C945302089521
:1012C000FF920F931F93CF93DF9300D0CDB7DEB77C
:1012D000082F10E0F801EC5CFC4F9081F62EF9220B
:1012E0000E5B1D4F411104C0F80190819F1511F153
:1012F0002F2D30E03A832983A0919D04B0919E0464
:101300001097B1F0682FED91FC9111976F706069A3
:101310000190F081E02DCD01099522E030E0AE0191
:101320004F5F5F4F62E070E08DE994E00E948003C0
:10133000F801F0820F900F90DF91CF911F910F91E4
:10134000FF900895CF92DF92EF92FF920F931F9339
:10135000CF93DF931F92CDB7DEB7E82E6B01F42E4B
:101360006F3F8FEF780709F181E080939C03E09253
:10137000BE0310929D031092BF038DE195E0298377
:101380000E94AD012981822F0E942914E0917003EF
:10139000F0917103E230F10550F0EE0FFF1FEE0FF8
:1013A000FF1F35973197F1F702C0C12CD12C8091E6
:1013B0009B038111FCCF2F2D80E28F1508F420E2D2
:1013C00081E080939B0380939A039FEF909399030E
:1013D00010929803920F90939703809376038091D5
:1013E00076039E2D990F892B809376038091750348
:1013F000813061F410927503809176038093BB0075
:101400008091BC0083FDF8CF85EC01C085EE809310
:10141000BC0080919B038130E1F380919803821797
:1014200010F420919803A7E7B3E047E652E0FA01F1
:101430008E2F841B821718F48D918193F9CF10920F
:101440008802209387020F2D10E030E00217130767
:101450001CF48DE291E005C02017310724F48AE4E2
:1014600091E00E94E613E092E402C092E502C12CF2
:10147000D12CC016D10634F4909187028091880255
:10148000981312C0F394F3946F2D70E044EE52E081
:1014900087E70F90DF91CF911F910F91FF90EF9011
:1014A000DF90CF900C9499138DE195E00E9461013B
:1014B000F601EC51FD4F82838FEFC81AD80AD9CFBD
:1014C000A82FB0E0A25DBD4F9C91292F30E0F9011B
:1014D000EE0FFF1F2E0F3F1FF901EA56FA4FE08172
:1014E000F0E09F01220F331FE20FF31FEF58FA4F76
:1014F00080818F7B808380912C02981306C0992372
:1015000079F0915090932C020BC0882349F0E09120
:101510002D02EF5FE0932D02F0E0E952FD4F908342
:101520008FEF8C930895DB0190912C029C30A8F5ED
:1015300030912D02682F70E0332369F0E32FF0E043
:10154000E952FD4F8081FB01E25DFD4F8083315008
:1015500030932D0207C0FB01E25DFD4F90839F5F3A
:1015600090932C02FB01E25DFD4F808190E09C0195
:10157000220F331F820F931F1A161B0634F4141602
:1015800015061CF49A01AD0104C020E639E040E2E2
:1015900052E08A569A4F0C94CC0586E691E00C9462
:1015A000E6138F929F92AF92BF92CF92DF92EF920B
:1015B000FF920F931F93CF93DF931F92CDB7DEB7A8
:1015C000C82ED12C9601235A3B4F4901F901ED5702
:1015D000FF4F90819F3709F447C1963041F49091B5
:1015E0004502992321F06630710509F01FC17B0186
:1015F000182F0EEF080F0231F8F464307105E1F096
:10160000F601E25DFD4F80818C30B0F490E0FC018A
:10161000EE0FFF1F8E0F9F1FFC01EA56FA4F8081CD
:1016200090E0FC01EE0FFF1F8E0F9F1FFC01EF5893
:10163000FA4F808186FD00C192EF910F963068F4D9
:1016400061E070E082E0E816F10411F060E070E023
:10165000892F99830E9450079981023118F5E12F53
:10166000E695E695E695812F8770F0E0EC5CFC4FFF
:10167000E114F10421F02BE0E216F10449F421E039
:1016800030E001C0220F8A95EAF78081282B09C03B
:1016900021E030E001C0220F8A95EAF72095808191
:1016A000282320835601AA0CBB1CF501EC50FB4FEC
:1016B000118210823CE0E316F10408F0A6C0F701A5
:1016C000EC5CFF4F0C94331A963008F0CDC0023119
:1016D00020F460E0812F0E949F02F401ED57FF4F3C
:1016E00080818F3709F4C0C082E08DC0023108F0DC
:1016F000BBC060E0812F0E949F02F401ED57FF4FB5
:1017000080818F3709F4B0C01082AEC0023108F07A
:10171000ABC062E0812F0E949F02F401ED57FF4FA2
:1017200080818F3711F08BE08083F501EC50FB4F07
:1017300081E090E09183808397C0023108F094C0EB
:1017400060E0812F0E94530261E0812F0E949F027E
:10175000F401ED57FF4F80818F3709F485C081E098
:1017600052C0133049F08BEF810F823028F087EFA1
:10177000810F833008F078C061E0812F0E949F02C2
:1017800061E0812F0E949F0260E0812F0E9453023E
:10179000F401ED57FF4F80818F3709F465C083E076
:1017A00032C0023108F060C0F401ED57FF4F808174
:1017B0008F3711F084E08083F601E25DFD4F808178
:1017C0008F3FF1F190E0FC01EE0FFF1F8E0F9F1F86
:1017D000FC01EA56FA4F808190E0FC01EE0FFF1FFA
:1017E0008E0F9F1FFC01EF58FA4F808186FD3CC091
:1017F00027C012511230C0F5F401ED57FF4F808120
:101800008F3791F186E080832FC08AE791E00F90B7
:10181000DF91CF911F910F91FF90EF90DF90CF90CC
:10182000BF90AF909F908F900C94E613109245025A
:101830009FEF90930001DBCE812F0E94600AFCCEC7
:101840004FEF5FEF6FEF7FEF812F0F90DF91CF9121
:101850001F910F91FF90EF90DF90CF90BF90AF90CE
:101860009F908F900C94930A0F90DF91CF911F91CE
:101870000F91FF90EF90DF90CF90BF90AF909F902F
:101880008F900895DC0170E0FB01E855FF4FE49173
:101890001896EC9318976C567F4FFB018491E82FB4
:1018A000F0E0EE0FFF1FE657FF4F859194911596DC
:1018B0009C938E931497FB016491E62FF0E0EE0F5A
:1018C000FF1FE058FF4F8591949117969C938E933C
:1018D00016970895CF92DF92EF92FF920F931F9386
:1018E000CF93DF936C017A018B01C0E0D0E0CE157D
:1018F000DF0589F0D8016D918D01D601ED91FC9144
:101900000190F081E02DC6010995892B11F47E012B
:1019100002C02196ECCFC701DF91CF911F910F91AB
:10192000FF90EF90DF90CF900895FC01538D448D90
:10193000252F30E0842F90E0821B930B541710F07A
:10194000CF96089501970895FC01918D828D981787
:1019500061F0828DDF01A80FB11D5D968C91928D93
:101960009F5F9F73928F90E008958FEF9FEF089590
:10197000FC01918D828D981731F0828DE80FF11D59
:10198000858D90E008958FEF9FEF089580EC93E0B0
:101990000E94940021E0892B09F420E0822F089511
:1019A0000E94661BEF92FF920F931F93CF93DF93DA
:1019B000EC0181E0888F9B8D8C8D981305C0E889A0
:1019C000F989808185FD24C0F62E0B8D10E00F5F14
:1019D0001F4F0F731127E02E8C8DE8120CC00FB62D
:1019E00007FCFACFE889F989808185FFF5CFCE0120
:1019F0000E943202F1CF8B8DFE01E80FF11DE35AF8
:101A0000FF4FF0820B8FEA89FB898081806207C0DB
:101A1000EE89FF896083E889F98980818064808309
:101A200081E090E0DF91CF911F910F91FF90EF90B7
:101A30000895CF93DF93EC01888D8823C9F0EA895C
:101A4000FB89808185FD05C0A889B9898C9186FDB7
:101A50000FC00FB607FCF5CF808185FFF2CFA889B4
:101A6000B9898C9185FFEDCFCE010E943202E7CF7C
:101A7000DF91CF9108951F920F920FB60F9211240C
:101A80002F933F934F935F936F937F938F939F9386
:101A9000AF93BF93EF93FF9380EC93E00E943202E9
:101AA000FF91EF91BF91AF919F918F917F916F9136
:101AB0005F914F913F912F910F900FBE0F901F900C
:101AC00018951F920F920FB60F9211242F938F9398
:101AD0009F93EF93FF93E091D003F091D103808126
:101AE000E091D603F091D70382FD12C090818091DE
:101AF000D9038F5F8F732091DA03821751F0E09141
:101B0000D903F0E0E054FC4F958F8093D90301C0D6
:101B10008081FF91EF919F918F912F910F900FBE38
:101B20000F901F9018956F927F928F929F92AF9215
:101B3000BF92CF92DF92EF92FF920F931F93CF93BA
:101B4000DF93EA018F3609F4B6C1162F803778F497
:101B5000893609F482C220F4813509F490C24FC558
:101B60008B3609F4D3C18D3609F426C248C58637B1
:101B700061F020F4803709F43EC141C5883709F48B
:101B8000F1C08A3709F483C13AC52981922F98712F
:101B900025FF03C08BEF91E062C0888131E026FB16
:101BA000222720F92327983069F160F4911127C585
:101BB00030939C038093BE0310929D031092BF0349
:101BC00002E007C0903109F444C0983109F47DC0A7
:101BD00016C5011778F4FE01E00FF11D81816081C7
:101BE00030E8839F601911248DE195E00E94AD01DA
:101BF0000E5FEFCF81E00E94291483E191E001970D
:101C0000F1F7FDC44A816B81163069F490E8699F51
:101C1000B0011124640F711D9D814C81E0E89E9FED
:101C20004019112406C0F0E86F9F401911246FEF8E
:101C30007FEFDF91CF911F910F91FF90EF90DF9099
:101C4000CF90BF90AF909F908F907F906F900C94AB
:101C5000A209E0910001E73094F08BE192E0DF917E
:101C6000CF911F910F91FF90EF90DF90CF90BF9099
:101C7000AF909F908F907F906F900C94E6139A8115
:101C80004B81663069F430E8439FA0011124490F6D
:101C9000511D3D819C8160E8369F9019112406C03A
:101CA000F0E84F9F901911244FEF5FEFEF5FE09343
:101CB000000135E0E302F0011124E25CFC4F808377
:101CC00052834183938324839AC420910001121686
:101CD00014F08FEF44C090E0622F022E000C770BBF
:101CE00035E0492F50E06417750774F0349FF00118
:101CF000359FF00D1124E25CFC4F4081481302C077
:101D000085E026C09F5FEDCF90E0FACF9830F8F4E1
:101D1000FA0131968E9FD0018F9FB00D1124A25CE5
:101D2000BC4F3C91849FF001859FF00D1124E25C33
:101D3000FC4F308311964D915C91129752834183F1
:101D400013963C911397338314963C9134839F5F91
:101D5000492F50E064177507CCF68FEF820F809300
:101D600000014DC42881898140E8849FC00111246D
:101D7000820F911D009721F090937103809370035F
:101D80008091450281113BC4C0E08EEE8C0F823001
:101D900028F466E070E08C2F0E94D10ACF5FC43136
:101DA000A1F781E080934502109288021092870289
:101DB00010929D031092BF0310929B0380939A038D
:101DC0001092750361E082E10E94530261E083E1B9
:101DD0000E9453028091B9008E7F8093B900809158
:101DE000B9008D7F8093B90088E48093B80085E4C2
:101DF0008093BC0004C4653008F401C41881F980E4
:101E00000A81EB80CC818EEF810F823108F0F7C31D
:101E1000E12FF0E0E25DFD4F20812C30B0F430E0A6
:101E2000F901EE0FFF1F2E0F3F1FF901EA56FA4F7F
:101E3000208130E0F901EE0FFF1F2E0F3F1FF90147
:101E4000EF58FA4F808186FDC0C360E8C69FA001AD
:101E500011244E0D511D80E8089FB00111246F0D13
:101E6000711D812F0E94930A64E070E0812FDF9141
:101E7000CF911F910F91FF90EF90DF90CF90BF9087
:101E8000AF909F908F907F906F900C94D10A6230AA
:101E900008F4B5C328818981E0E88E9FC001112430
:101EA000820F911D009711F481E090E09093020160
:101EB00080930101A4C3623008F4A1C3898190E03A
:101EC000623091F02A81F0E82F9F90011124822B3B
:101ED000932B633049F02B8130E030E4239F302D89
:101EE00022271124822B932BBC018881DF91CF9173
:101EF0001F910F91FF90EF90DF90CF90BF90AF9028
:101F00009F908F907F906F900C94210880EF0E949B
:101F10001C148CE60E941C14CEEF84EF8C0F8630CC
:101F200038F482E00E941C148AE00E941C1409C04C
:101F3000C13039F483E00E941C1488E00E941C1414
:101F400008C08DEF8C0F8230A8F389EF8C0F83309F
:101F500088F3C23130F484E00E941C148EE00E94A9
:101F60001C1480EF8C0F823030F486E00E941C1429
:101F700081E00E941C148FE70E941C14CF5FC231C5
:101F800051F1C23150F680E00E941C1481E00E94A1
:101F90001C148BE00E941C1481E00E941C1481E040
:101FA0000E941C1481E00E941C1481E50E941C14F4
:101FB00081E00E941C14B1CF662309F420C3C881BC
:101FC00080EF0E941C148EE60E941C148C2F0E942D
:101FD0001C14C43188F087EFDF91CF911F910F91CE
:101FE000FF90EF90DF90CF90BF90AF909F908F9039
:101FF0007F906F900C941C14D0E0FE01E052FB4FD8
:1020000080810E941C14CC0FDD1F8E010C501B4FD1
:10201000F80180818F770E941C14F80180819181E2
:102020009C012078232B39F0880F892F881F990B6A
:102030008F770E941C14CC50DB4F888199819C01C2
:102040002227307C232B39F2990F880B990F982F78
:10205000881F8F770E941C14BECF80EF0E941C1433
:102060008AE60E941C14C2EFC63010F48C2F01C007
:102070008FE70E941C14CF5FC630B1F7ACCF662348
:1020800009F4BDC29881892F8F70833009F4CAC0CA
:1020900030F4813009F420C1823041F0B0C2843084
:1020A00009F467C0853009F4E7C1A9C280917403BF
:1020B0008111A5C2809173038111A1C281E0809337
:1020C000740360E019E080916102681708F04EC067
:1020D000862F90E0AC01495B5D4FFA0120812223FD
:1020E00009F440C0E0906502F0906602189FE0019C
:1020F000199FD00D1124C75DDA4FEE81FF819081C9
:102100008885892B8083AC81BD8188852881398130
:10211000220F331F220F331FEA81FB81EE0FFF1FB7
:10212000EE0FFF1FEE0DFF1D7C91982F90959723CA
:10213000872B7FB7F8942E0F3F1FE217F30781F02C
:10214000C191D8E08C9300C0C7FF9C93CC0F00C016
:1021500000C000C008F49C9300C0DA9599F7EDCF59
:102160007FBF7894FA0110826F5FADCF1092740335
:1021700046C24981CA800B818C8190917303911171
:102180003EC290E0A0E0B0E0C5E1880F991FAA1F11
:10219000BB1FCA95D1F710E020E030E0DEE0000F71
:1021A000111F221F331FDA95D1F7800F911FA21F35
:1021B000B31F840F911DA11DB11DD12CE12CF12C59
:1021C00017E0CC0CDD1CEE1CFF1C1A95D1F7C80ED5
:1021D000D91EEA1EFB1EC114D104E104F10489F4E6
:1021E00040915F0250916002440F551F440F551FEC
:1021F00060E070E080916502909166020E94861B0B
:10220000CDC1C0E0D0E080915F0290916002C8171C
:10221000D90708F0C3C1B701A601CE010E940F077C
:102220002196F1CF99812A818B814C81CD800E81BD
:10223000309173033111E3C1C92FD0E0F0E82F9F33
:10224000C00DD11D112420915F0230916002C21790
:10225000D30768F510E020E030E055E1000F111FD2
:10226000221F331F5A95D1F7D12CE12CF12C6EE0AF
:10227000CC0CDD1CEE1CFF1C6A95D1F70C0D1D1D4E
:102280002E1D3F1D080F111D211D311D50E060E066
:1022900070E0E7E0440F551F661F771FEA95D1F7FE
:1022A000400F511F621F731FCE010E940F07209124
:1022B0006102AFE4B2E080E090E0821708F09FC1D5
:1022C000FC014D915D910196C417D507B0F7E95B0C
:1022D000FD4F81E0808393C1913009F090C163305C
:1022E00008F48DC1D09072030E943E07D11014C033
:1022F0006BEA169FC12C1124C6941FE4E12E12E054
:10230000F12E09E215E02396912C8824839482E033
:10231000782E93E0692E5AC0B9E2EB2EB5E0FB2E81
:1023200000E0602FC7010E94420C0F5F39E0E30E0E
:10233000F11C0830B1F7DCCFF501208130E0A5E0D9
:1023400035952795AA95E1F72130310509F458C054
:102350000CF048C0232B31F4109263028092640287
:1023600070926202FE01319780812881F0E82F9FF0
:1023700090011124280F311DF80131832083992009
:1023800009F44AC0F701329780819181280F391FE3
:10239000F701219331937F01F80193838283A09009
:1023A0005F02B090600280819181A80EB91EB09248
:1023B0006002A0925F02809161028F5F8093610250
:1023C0009394075F1F4F23969C1449F1CE01029707
:1023D0005C01D110B1CFFC0160816F71C8010E9416
:1023E000420CAACF2230310581F02330310509F0AB
:1023F000B9CF109264028092630260926202B2CFFF
:102400001092640280926302ABCF109262028092BB
:10241000640270926302A6CF80E090E0B7CF809113
:10242000650290916602009731F00E94CE1A1092D8
:10243000600210925F02A114B10409F4E0C0E5014A
:10244000CC0FDD1FCC0FDD1FCE010E94391A9093F7
:10245000660280936502009751F0AE0160E070E083
:102460000E94861BB0926002A0925F02C8C01092C8
:10247000600210925F02C3C08981082F0F7109F4B6
:102480008DC085FBCC24C0F8C02FCC0FCC0F91E0C1
:1024900090937303D0E010E086FBDD24D0F886FF34
:1024A00027C0CE010E94391A7C01009729F0AE01A5
:1024B00060E070E00E94861BCC2039F060915F02E2
:1024C00070916002601B710B02C060E070E0660FEB
:1024D000771F660F771F8091650290916602680FE3
:1024E000791FAE01C7010E946B1BC11072C018C0DA
:1024F000CC20B1F0809165029091660240915F021C
:1025000050916002401B510B440F551F440F551F43
:10251000BC018C0F9D1F0E94741B20E030E02DC079
:10252000809165029091660240915F025091600235
:10253000401B510B440F551F440F551FBC016C0F1E
:102540007D1F0E94741B20915F0230916002201B4E
:10255000310BDD2091F0220F331F220F331F8091AA
:10256000650290916602AE01B701820F931F0E942F
:102570006B1BC7010E94CE1A0FC0220F331F220F00
:10258000331F8091650290916602AE0160E070E0B9
:10259000820F931F0E94861B109273034091610269
:1025A00050E061E070E087E492E0DF91CF911F910D
:1025B0000F91FF90EF90DF90CF90BF90AF909F90E2
:1025C0008F907F906F900C94861B812F0E94600AE1
:1025D0003CCC809165029091660240915F025091DF
:1025E0006002401B510B440F551F440F551FBC0187
:1025F0008C0F9D1F0E94741B20E030E0ACCFDF9158
:10260000CF911F910F91FF90EF90DF90CF90BF90EF
:10261000AF909F908F907F906F900895833020F5BA
:10262000282F30E0F901E95CFC4F6083672BE1F073
:10263000F901EC5CFC4F9081811103C069B16C7FA2
:102640000FC0813049F463B136B140E4349F90014A
:1026500011246F73622B04C066B16C736695669526
:10266000692341E00C94600908951F93CF93DF9391
:1026700000D0CDB7DEB7182F7A83698380919D048F
:1026800090919E04009709F44EC0DC01ED91FC91FD
:102690001031A8F46115704490F4612F606E0190C0
:1026A000F081E02D099522E030E0AE014F5F5F4FF1
:1026B00062E070E08DE994E00E94800334C00190F4
:1026C000F081E02D60EF099580919D0490919E042A
:1026D000DC01ED91FC910190F081E02D6FE6099510
:1026E00080919D0490919E04DC01ED91FC910190FC
:1026F000F081E02D612F099522E030E0AE014F5FBF
:102700005F4F62E070E08DE994E00E948003809169
:102710009D0490919E04DC01ED91FC910190F0816B
:10272000E02D67EF09950F900F90DF91CF911F91EA
:102730000895EF92FF920F931F93CF93DF93C82FCB
:1027400080919D0490919E040097C9F17A018B01BC
:10275000DC01ED91FC910190F081E02D60EF099595
:1027600080919D0490919E04DC01ED91FC9101907B
:10277000F081E02D6C2F0995E7010E0D1F1DC0178C
:10278000D10759F020E030E0AE0161E070E08DE962
:1027900094E00E9480032196F2CF80919D04909155
:1027A0009E04DC01ED91FC910190F081E02D67EF3A
:1027B000DF91CF911F910F91FF90EF900994DF91DE
:1027C000CF911F910F91FF90EF900895FC01019020
:1027D0000020E9F73197BF01681B790BAC0181E755
:1027E0000C949913CF93DF93FC01A081B1811097D2
:1027F00001F1EC01ED91FC9111970190F081E02D38
:1028000069EFCD01099588819981DC01ED91FC91F9
:102810000190F081E02D62E0099588819981DC01C9
:10282000ED91FC910190F081E02D65E0DF91CF9179
:102830000994DF91CF910895A091DB04B091DC045D
:10284000ED91FC9111970190F081E02D682FCD0161
:102850000994382F2091BF039091BE03213208F0D4
:1028600049C080919B038111FCCF42E040939B03C0
:1028700030939A033FEF309399031092980320937B
:102880009703AEE9B3E047E753E0FA013E2F341B6C
:10289000321718F43D913193F9CF109276032091BD
:1028A0007603990F922B9093760390917503913054
:1028B00061F410927503909176039093BB00909110
:1028C000BC0093FDF8CF95EC01C095EE9093BC0051
:1028D00090919B039230E1F3909199039F3F79F09F
:1028E00080919903803241F080919903803331F0D7
:1028F00084E005C081E003C082E001C083E0109263
:102900009D031092BF0310929C0308951F93CF93D1
:10291000DF93182FEB018091A2049091A304681714
:10292000790748F46091A0047091A104C60FD71FE5
:10293000188380E018C0E091CF04F091D004309764
:1029400011F481E010C081E080939F048091BB046A
:102950009091BC0409958091A2049091A304C8179A
:10296000D90778F7DFCFDF91CF911F910895CF93EB
:10297000DF93EC01FB0120E030E0CF01861B970BD9
:102980002C173D0778F4DB01A20FB31F9C919083B5
:1029900011964C91479544274795942B91932E5F20
:1029A0003F4FEBCFDF91CF9108950895789484B590
:1029B000826084BD84B5816084BD85B5826085BD3B
:1029C00085B5816085BD80916E00816080936E00C9
:1029D00010928100809181008260809381008091BB
:1029E000810081608093810080918000816080936C
:1029F00080008091B10084608093B1008091B0002C
:102A000081608093B00080917A00846080937A0026
:102A100080917A00826080937A0080917A00816050
:102A200080937A0080917A00806880937A00109277
:102A3000C10088E18093DD048091DE049091DF0481
:102A40000E94CE1AC091DD04D0E0CE0101960E9412
:102A5000391A9093DF048093DE04FC01EC0FFD1F14
:102A6000108212E0DC011C9325E011962C93AE013C
:102A70004250510964EE71E002960E948D1B81E282
:102A800098E090932F0380932E0385E897E090932E
:102A90002D0380932C0380E597E090932B03809384
:102AA0002A038EE093E1909329038093280381ED1C
:102AB0009AE090932703809326038BE499E0909308
:102AC00025038093240383E99DE090933103809351
:102AD000300387EE91E09093330380933203E091CB
:102AE000D003F091D1031083E091D003F091D10392
:102AF0001082E091CC03F091CD031082E091CE03DF
:102B0000F091CF0380E180831092D803E091D40349
:102B1000F091D50386E08083E091D203F091D30356
:102B2000808180618083E091D203F091D303808122
:102B300088608083E091D203F091D3038081806824
:102B40008083E091D203F091D30380818F7D8083D5
:102B500080911C05811150C061E08DE00E949F02B0
:102B600062ED70E080E090E00E94F20261E08DE0B2
:102B70000E94530268E270E080E090E00E94F2025E
:102B800060E08DE00E94530262ED70E080E090E032
:102B90000E94F20261E08DE00E94530268E270E060
:102BA00080E090E00E94F20260E08DE00E9453021B
:102BB0006AEF70E080E090E00E94F202C0E062ED17
:102BC00070E080E090E00E94F20261E08DE00E94FF
:102BD000530268E270E080E090E00E94F20260E060
:102BE0008DE00E945302CF5FC53049F76DE770E07A
:102BF00080E090E00E94F20280EC93E09093DC048D
:102C00008093DB0490939E0480939D048DE994E06F
:102C10000E94F2138DE594E00E9427040E94E701D0
:102C20000E943E07EE24E394C2E0D0E001E010E011
:102C300025E0D22E80913703882349F069B1809135
:102C4000340368236C7F40E080E00E94600980913B
:102C50003803882379F063B196B1B0E49B9FC0013B
:102C600011246F73862B60913503682340E081E067
:102C70000E946009809139038823E1F066B16C738A
:102C80006695669580913603682340E082E00E9455
:102C9000600910C08091DB049091DC04DC01ED91AF
:102CA000FC910284F385E02D09959C018F3FBFEFD5
:102CB0009B0771F48091DB049091DC04DC01ED91C1
:102CC000FC910084F185E02D0995892B19F7BEC18F
:102CD000982F8091A804882309F492C0973F09F0A7
:102CE0007EC01092A804A091A004B091A1046C91A0
:102CF0006137C1F1693709F05CC0E091D504F0910A
:102D0000D6043097B9F28091A9049091AA04833037
:102D1000910538F420E030E040E050E060E070E001
:102D20001BC0BD016D5F7F4F03970E94B714BC01AC
:102D30006D5F7F4F80E00E948614E091A004F091C7
:102D4000A1049F012D5F3F4F428150E0618170E0FF
:102D5000E091D504F091D6048091B7049091B80425
:102D60000995A8CF8091D1049091D204892B09F4C0
:102D7000A1CFBD016F5F7F4F8091A9049091AA04FC
:102D800001970E94B714BC016F5F7F4F80E00E94E3
:102D900086146091A0047091A1046F5F7F4FE09151
:102DA000D104F091D2048091BD049091BE040995A4
:102DB00081CFE091D304F091D404309709F47ACF15
:102DC0009D012F5F3F4F4091A9045091AA044150AB
:102DD00051098091BF049091C00409956BCF609117
:102DE000A9047091AA04822F0E9486148091A904DC
:102DF0009091AA0401969093AA048093A9045ACFB3
:102E00006091A6047091A7046115710509F4AFC023
:102E100027FDADC0615071097093A7046093A604AB
:102E2000822F0E9486148091A6049091A704892B7A
:102E300009F040CF8091A404882309F43BCF803D62
:102E400009F47FC030F4803939F1803C09F466C060
:102E50008BC0843FE1F1853F09F44DC0803E09F00D
:102E600083C0E091C304F091C404309709F47CC09E
:102E7000A091A004B091A1048C9111964C9150E0C6
:102E800020E8829F400D511D11246091A50480917E
:102E9000AB049091AC0467C0E091C504F091C60406
:102EA000309709F461C0A091A004B091A1048C9165
:102EB00011964C9150E090E8899F400D511D1124CE
:102EC0006091A5048091AD049091AE044CC0E09156
:102ED000CB04F091CC04309709F446C0A091A00433
:102EE000B091A1044C9150E011966C918091B30483
:102EF0009091B40438C0E091CD04F091CE043097A5
:102F000099F1A091A004B091A1044C9150E01196C8
:102F10006C918091B5049091B60425C0E091C704EE
:102F2000F091C804309701F1A091A004B091A104E0
:102F30004C9150E06091A5048091AF049091B00451
:102F400012C0E091C904F091CA04309769F0A091D1
:102F5000A004B091A1044C9150E06091A50480912F
:102F6000B1049091B20409951092A404A3CE903FAD
:102F700030F4822F8F708093A504922F907F903F22
:102F800079F158F4903C29F118F49039E9F092CE97
:102F9000903DF9F0903EC1F08DCE993F09F449C0C3
:102FA00028F48CE0890F823078F084CE9F3F09F0BE
:102FB00081CE1092A7041092A6041092A40410923D
:102FC000A50480E090E013C0D093A704C093A604AA
:102FD00004C01093A7040093A6049093A4046ACE9F
:102FE000E092A8041092AA041092A90463CE209142
:102FF000A2043091A3048217930748F4E091A0043F
:10300000F091A104E80FF91F10820196F0CF109201
:10301000A8041092AA041092A904E091D904F09196
:10302000DA04309709F446CE8091C1049091C2042D
:103030000BC0E091D704F091D804309709F43ACE50
:103040008091B9049091BA04099534CE8FB7F89461
:1030500080903A0390903B03A0903C03B0903D03D6
:103060008FBF80926C0390926D03A0926E03B0921A
:103070006F038091680390916903A0916A03B091F6
:103080006B03409101015091020160E070E0881AE9
:10309000990AAA0ABB0A481559056A057B0508F072
:1030A00052C0840F951FA61FB71F8093680390938B
:1030B0006903A0936A03B0936B0380EEA82E84E0AB
:1030C000B82E92EFF92EB5E0BF15B8F0F50180816A
:1030D000823099F480916603909167030F2C02C0AF
:1030E000959587950A94E2F780FF07C08F2D0E947F
:1030F000DB02BC018F2D0E943513F394FFEFAF1A52
:10310000BF0A26E0F212DFCF8091000187FD1BC0CD
:10311000F12C2F2D30E080910001082E000C990B2E
:103120008217930784F0D29EF001D39EF00D1124F4
:10313000E25CFC4F618172812481438180810E9425
:10314000A209F394E6CF0E94A00074CD1092C303AD
:103150001092C20348EE53E060E070E04093C40375
:103160005093C5036093C6037093C7038DE091E04D
:103170009093C1038093C00385EC90E09093CD03BE
:103180008093CC0384EC90E09093CF038093CE03A4
:1031900080EC90E09093D1038093D00381EC90E099
:1031A0009093D3038093D20382EC90E09093D50365
:1031B0008093D40386EC90E09093D7038093D6035A
:1031C0001092D9031092DA031092DB031092DC0301
:1031D0008DE594E010929E0410929D049093A104BA
:1031E0008093A00420E430E03093A3042093A20451
:1031F0001092A4041092A5041092A7041092A604A1
:103200001092A8041092AA041092A9041092AC047F
:103210001092AB041092AE041092AD041092B00460
:103220001092AF041092B2041092B1041092B40440
:103230001092B3041092B6041092B5041092BC041C
:103240001092BB041092BE041092BD041092C004F0
:103250001092BF041092C2041092C1041092D004C4
:103260001092CF0410929F041092DD041092DF049C
:103270001092DE0410921C0525E131E03093C40465
:103280002093C3042BE031E03093C6042093C5049F
:103290002DEE30E03093C8042093C70423EE30E0D5
:1032A0003093CA042093C90421E031E03093CC0468
:1032B0002093CB0427EF30E03093CE042093CD044D
:1032C00022EE30E03093D2042093D10427ED30E099
:1032D0003093D4042093D30429E934E03093D60406
:1032E0002093D5049093B8048093B70420EE31E086
:1032F0003093D8042093D7049093BA048093B904F0
:103300008FEC90E09093DA048093D904109220051A
:1033100010921F05409321055093220560932305C9
:10332000709324058FE191E090931E0580931D0515
:10333000E9E2F5E01182108213821282399625E0CB
:10334000E137F207B9F780919505A6E9B5E09FEF5F
:1033500048EB5BE08C3078F48C93282F30E0F90157
:10336000EE0FFF1F2E0F3F1FF901EF58FA4F528348
:1033700041838F5F01C09C93139625E0AA3BB2075F
:1033800049F7809395050895052E97FB1EF4009448
:103390000E94DB1957FD07D00E94F61907FC03D0E5
:1033A0004EF40C94DB1950954095309521953F4F84
:1033B0004F4F5F4F089590958095709561957F4F21
:1033C0008F4F9F4F08950E94181AA59F900DB49F8C
:1033D000900DA49F800D911D11240895B7FF0C94AA
:1033E000E3190E94E319821B930B0895A1E21A2EA0
:1033F000AA1BBB1BFD010DC0AA1FBB1FEE1FFF1F99
:10340000A217B307E407F50720F0A21BB30BE40BE8
:10341000F50B661F771F881F991F1A9469F760952F
:103420007095809590959B01AC01BD01CF010895E9
:10343000A29FB001B39FC001A39F700D811D1124F5
:10344000911DB29F700D811D1124911D0895991B2E
:1034500079E004C0991F961708F0961B881F7A958B
:10346000C9F780950895EE0FFF1F0590F491E02DA8
:103470000994CF93DF938230910510F482E090E0BD
:10348000E091BC05F091BD0520E030E0C0E0D0E067
:10349000309711F14081518148175907C0F0481702
:1034A000590761F482819381209719F09B838A8365
:1034B0002BC09093BD058093BC0526C02115310516
:1034C00019F04217530718F49A01BE01DF01EF010A
:1034D0000280F381E02DDCCF2115310509F1281B95
:1034E000390B2430310590F412968D919C911397ED
:1034F0006115710521F0FB019383828304C09093D1
:10350000BD058093BC05FD01329644C0FD01E20F6C
:10351000F31F81939193225031092D933C933AC02C
:103520002091BA053091BB05232B41F42091050170
:10353000309106013093BB052093BA052091030119
:10354000309104012115310541F42DB73EB740916A
:10355000070150910801241B350BE091BA05F09149
:10356000BB05E217F307A0F42E1B3F0B2817390702
:1035700078F0AC014E5F5F4F2417350748F04E0FCF
:103580005F1F5093BB054093BA058193919302C08E
:10359000E0E0F0E0CF01DF91CF9108950F931F930A
:1035A000CF93DF93009709F48CC0FC01329713820C
:1035B00012820091BC051091BD050115110581F421
:1035C00020813181820F931F2091BA053091BB0574
:1035D0002817390779F5F093BB05E093BA0571C058
:1035E000D80140E050E0AE17BF0750F412962D917D
:1035F0003C911397AD012115310509F1D901F3CFA4
:103600009D01DA013383228360817181860F971FC8
:103610008217930769F4EC0128813981260F371F3F
:103620002E5F3F4F318320838A819B8193838283E6
:10363000452B29F4F093BD05E093BC0542C01396D9
:10364000FC93EE931297ED01499159919E01240F3D
:10365000351FE217F30771F480819181840F951F64
:10366000029611969C938E938281938113969C93DC
:103670008E931297E0E0F0E0D80112968D919C9124
:103680001397009719F0F8018C01F6CF8D919C915A
:1036900098012E5F3F4F820F931F2091BA05309102
:1036A000BB052817390769F4309729F41092BD0536
:1036B0001092BC0502C0138212821093BB050093C6
:1036C000BA05DF91CF911F910F91089581E090E0AD
:1036D000F8940C949C1BFB01DC0102C001900D923C
:1036E00041505040D8F708956817790768F4FB01F6
:1036F000DC01E40FF51FA40FB51F02C002900E926B
:1037000041505040D8F708950C946B1BDC0101C068
:103710006D9341505040E0F70895FB01DC014150AA
:10372000504048F001900D920020C9F701C01D9251
:1037300041505040E0F7089510E0C9E6D0E004C0E1
:10374000FE010E94331A2196CA36D107C9F7F894B0
:02375000FFCFA9
:10375200FF13000000BE05800000000000D20C6ACA
:103762000C950C190D9400A40CB80C00000000ADCF
:10377200017D01DD015101750161015201493243AF
:103782003A20546F6F206D616E792062797465738F
:10379200207265636569766564004932433A205454
:1037A2006F6F206665772062797465732072656336
:1037B2006569766564004D617820736572766F7312
:1037C20020617474616368656400556E6B6E6F7717
:1037D2006E2070696E206D6F6465002F557365727F
:1037E200732F4C617772656E63652F446F63756DDD
:1037F200656E74732F5265706F7369746F72696549
:10380200732F546573742F6E6F64652D70697865BC
:103812006C2F6669726D776172652F6275696C646F
:103822002F6E6F64655F706978656C5F6669726D33
:103832006174612F6E6F64655F706978656C5F6635
:1038420069726D6174612E696E6F0031302D62692B
:10385200742061646472657373696E67206E6F743D
:1038620020737570706F7274656400746F6F206D71
:0C387200616E79207175657269657300E4
:00000001FF
