:100000000C946A000C9492000C9492000C94760369
:100010000C9476030C9476030C9492000C9492004A
:100020000C9492000C9492000C9492000C944E0646
:100030000C9492000C9492000C9492000C949200F8
:100040000C942C030C9492000C94650D0C943F0DB1
:100050000C9492000C9492000C9492000C949200D8
:100060000C949E040C9492007A0BA10B680BB50BB8
:10007000D50B090CFD0B090C090C090C380C8A0B6B
:1000800000000000240027002A00000000002500D6
:1000900028002B00040404040404040402020202E5
:1000A000020203030303030301020408102040803B
:1000B00001020408102001020408102000000008BA
:1000C000000201000003040700000000000000001F
:1000D000AC18DB1411241FBECFEFD8E0DEBFCDBFBC
:1000E00012E0A0E0B1E0EEE5F7E302C005900D926A
:1000F000AC32B107D9F725E0ACE2B2E001C01D9205
:10010000AF3BB207E1F710E0C9E6D0E004C02197A9
:10011000FE010E94391AC836D107C9F70E94DC14C3
:100120000C94A21B0C940000FC01918D228D892F50
:1001300090E0805C9F4F821B91098F7399270895EF
:1001400080E090E0892B29F00E94CA0C81110C9468
:10015000000008953FB7F8948091D5029091D6029F
:10016000A091D702B091D80226B5A89B05C02F3F19
:1001700019F00196A11DB11D3FBFBA2FA92F982FCD
:100180008827820F911DA11DB11DBC01CD0142E048
:10019000660F771F881F991F4A95D1F70895E09140
:1001A0003303F0913403309709F009940895862FB2
:1001B000642FE0913103F0913203309711F0A901DF
:1001C000099408950895862FE0912903F0912A0358
:1001D000309711F0BA0109940895862FE0912B030E
:1001E000F0912C03309711F0BA0109940895862FED
:1001F000E0912503F0912603309711F0BA0109949C
:100200000895862FE0912703F0912803309711F08D
:10021000BA0109940895862FE0912D03F0912E03E1
:10022000309711F0BA0109940895862FE0912F03B9
:10023000F0913003309711F0BA010994089585EDDB
:100240008093BC008091BC0084FDFCCF10929C0385
:1002500008954091AD02262F30E0240F311D213248
:100260003105DCF420919C032430C9F4FC0180E0CA
:1002700090E0861758F43091AD022191DC01A5572A
:10028000BD4FA30FB11D2C930196F3CF8091AD020A
:10029000680F6093AD0280E0089581E0089582E0E8
:1002A00008950895E091890280918802E81730F45A
:1002B000F0E0E859FD4F808190E008958FEF9FEFC7
:1002C00008959091890280918802981750F4E92F3F
:1002D000F0E0E859FD4F208130E09F5F9093890264
:1002E00002C02FEF3FEFC90108958091880290E08E
:1002F00020918902821B91090895CF92DF92EF929B
:10030000FF920F931F93CF93DF937C01262F972F9C
:100310008A0180919D03882391F0C62FD72F6E010B
:10032000C40ED51ECC15DD0571F06991D701ED9194
:10033000FC910190F081E02DC7010995F3CF642F66
:10034000822F0E942901C801DF91CF911F910F9147
:10035000FF90EF90DF90CF900895CF93DF931F929F
:10036000CDB7DEB7698320919D032223D1F0209180
:10037000C003203240F021E030E0FC0133832283CF
:1003800080E090E015C080919E03E82FF0E0E156F8
:10039000FC4F998190838F5F80939E038093C0036D
:1003A00005C061E0CE0101960E94290181E090E044
:1003B0000F90DF91CF910895089580E090E0089527
:1003C000009721F0805C9F4F0C94F81308950F93D1
:1003D0001F93CF93DF9381E0809346028091450283
:1003E000882329F0109245028FEF8093000110922C
:1003F0003803109235031092420210923903109282
:1004000036031092430210923A031092370310926F
:1004100044020EE212E0C0E0DFEF82EF8C0F863084
:1004200018F462E070E006C08EEF8C0F823128F481
:1004300061E070E08C2F0E94D50AF801D1938F0102
:10044000CF5FC43151F71092680310926703109286
:100450002D0210922C0210924602DF91CF911F9133
:100460000F910895FC01848DDF01A80FB11DA35ADF
:10047000BF4F2C91848D90E001968F739927848FC4
:10048000A689B7892C93A089B1898C9180648C93BB
:10049000938D848D981306C00288F389E02D8081A6
:1004A0008F7D8083089590E0FC01E454FF4F3491E8
:1004B000FC01E855FF4F2491FC01EC56FF4FE491FD
:1004C000EE2309F43BC0332339F1333091F038F493
:1004D0003130A9F0323001F584B58F7D12C037304C
:1004E00091F03830A1F03430B9F4809180008F7DE4
:1004F00003C0809180008F77809380000DC084B509
:100500008F7784BD09C08091B0008F7703C0809140
:10051000B0008F7D8093B000F0E0EE0FFF1FE65734
:10052000FF4FA591B4918FB7F894EC91611103C07E
:1005300020952E2301C02E2B2C938FBF0895CF938F
:10054000DF9390E0FC01E855FF4F2491FC01EC564D
:10055000FF4F8491882361F190E0880F991FFC017F
:10056000E058FF4FC591D491FC01E657FF4FA5918C
:10057000B491611109C09FB7F894888120958223B6
:100580008883EC912E230BC0623061F49FB7F894FE
:100590003881822F809583238883EC912E2B2C9396
:1005A0009FBF06C08FB7F894E8812E2B28838FBF9A
:1005B000DF91CF9108958E3008F08E50877080645F
:1005C00080937C0080917A00806480937A0080918F
:1005D0007A0086FDFCCF809178002091790090E030
:1005E000922B08958F929F92AF92BF92CF92DF92FB
:1005F000EF92FF926B017C010E94AA004B015C010B
:10060000C114D104E104F104F1F00E94AA00DC015C
:10061000CB0188199909AA09BB09883E9340A10515
:10062000B10570F321E0C21AD108E108F10888EEA3
:10063000880E83E0981EA11CB11CC114D104E104F2
:10064000F10419F7DDCFFF90EF90DF90CF90BF90CE
:10065000AF909F908F9008951F920F920FB60F92B8
:1006600011242F933F938F939F93AF93BF938091C8
:100670003B0390913C03A0913D03B0913E03309128
:10068000D40223E0230F2D3720F40196A11DB11DC4
:1006900005C026E8230F0296A11DB11D2093D402A8
:1006A00080933B0390933C03A0933D03B0933E03A0
:1006B0008091D5029091D602A091D702B091D80234
:1006C0000196A11DB11D8093D5029093D602A093EF
:1006D000D702B093D802BF91AF919F918F913F9174
:1006E0002F910F900FBE0F901F9018951F920F9291
:1006F0000FB60F9211240F900FBE0F901F901895F8
:100700002F923F925F926F927F928F929F92AF92C1
:10071000BF92CF92DF92EF92FF920F931F93CF93EE
:10072000DF937C013901DA015C90232B19F46624F4
:100730006A94762C8A011A01260E371EC0E0D0E09A
:10074000812C912C87E0C82ED12C0215130509F4B9
:1007500044C08614970408F068C05801F7018081EE
:100760009181FC01A081B181F80121918F01E22FDB
:100770000C2E01C0EE0F0A94EAF7652D6E2B6F77F1
:10078000ED91FC9109958FEF881A980AD5016C912B
:1007900070E0C6018C1B9D0B02C0759567958A950C
:1007A000E2F7562E2196C730D10578F286149704C9
:1007B00061F2F70180819181DC01ED91FC91652D61
:1007C0006F770190F081E02D0995BFEF8B1A9B0A9E
:1007D000551C5524551C2797E6CF209731F18614D8
:1007E000970418F5F70180819181DC01ED91FC916E
:1007F00061E070E001C0660FCA95EAF761506521BB
:100800000190F081E02DDF91CF911F910F91FF902A
:10081000EF90DF90CF90BF90AF909F908F907F90A0
:100820006F905F903F902F900994DF91CF911F912F
:100830000F91FF90EF90DF90CF90BF90AF909F907F
:100840008F907F906F905F903F902F900895DF92F0
:10085000EF92FF920F931F93CF93DF93FC01E05829
:10086000FF4FD080DD2009F45CC0319600811181FA
:10087000D8011196FC901197EC90EC01C05CDF4F11
:1008800088819981009709F44CC0DC01ED91FC91BD
:100890000190F081E02D60EF099588819981DC015C
:1008A000ED91FC910190F081E02D69E70995888137
:1008B0009981DC01ED91FC910190F081E02D6E2D8C
:1008C000099588819981DC01ED91FC910190F0817D
:1008D000E02D6F2D09957801B2E0EB0EF11C0D0DA6
:1008E000111DE016F10661F020E030E0A70161E0A3
:1008F00070E0CE010E948003EFEFEE1AFE0AF1CF06
:1009000088819981DC01ED91FC910190F081E02DCD
:1009100067EFDF91CF911F910F91FF90EF90DF90E4
:100920000994DF91CF911F910F91FF90EF90DF908D
:100930000895009711F00C94270408951F920F92C8
:100940000FB60F9211242F933F934F935F936F93A2
:100950007F938F939F93AF93BF93EF93FF93809178
:10096000B900887F803609F49CC068F5883209F4A4
:100970005BC090F4803109F454C038F4882309F442
:10098000F6C0883009F44DC0F6C0883109F44CC077
:10099000803209F45DC0EFC0803409F468C048F4C7
:1009A000803309F455C0883309F0E5C080939A0379
:1009B000D8C0803509F44FC0883509F45DC088344B
:1009C00009F0D9C0D6C0883909F4C7C0A8F488375F
:1009D00009F467C038F4883609F463C0803709F435
:1009E00060C0C9C0883809F4B8C0803909F45FC054
:1009F000803809F0C0C05BC0803B09F486C038F481
:100A0000803A09F466C0883A09F47FC0B4C0803CDB
:100A100009F4A7C0883C09F4A4C0883B09F48AC043
:100A2000AAC08091770310C0909199038091980398
:100A3000981770F5E091990381E08E0F80939903E8
:100A4000F0E0E858FC4F80818093BB0085EC86C0C5
:100A500080939A038EC0E091990381E08E0F80937A
:100A600099038091BB00F0E0E858FC4F808390919F
:100A70009903809198036EC0E091990381E08E0FF5
:100A8000809399038091BB00F0E0E858FC4F80838D
:100A900080919B0381116DC081E08093760384EA8D
:100AA00061C083E080939C031092D102CFCF8091EC
:100AB000D102803208F051C0E091D10281E08E0F66
:100AC0008093D1028091BB00F0E0EF54FD4F808312
:100AD000BDCF85EC8093BC0010929C038091D10225
:100AE000803230F4E091D102F0E0EF54FD4F1082FB
:100AF0006091D10270E0E091AF02F091B00281EB21
:100B000092E009951092D10236C084E080939C0354
:100B10001092AE021092AD02E091AB02F091AC02E5
:100B200009958091AD02811105C081E08093AD02ED
:100B300010928B02E091AE0281E08E0F8093AE02A4
:100B4000F0E0E557FD4F80818093BB009091AE02AD
:100B50008091AD02981708F479CF85E88093BC00A6
:100B60000AC085EC8093BC0010929C0304C01092D4
:100B70009A030E941F01FF91EF91BF91AF919F9146
:100B80008F917F916F915F914F913F912F910F9036
:100B90000FBE0F901F901895DF92EF92FF920F9368
:100BA0001F93CF93DF93EC01D62E7A0189018881C0
:100BB0008C3008F06AC061E08D2D0E949F02888110
:100BC000E82FF0E09F01220F331FE20FF31FEE58D2
:100BD000FA4F9D2D9F732081207CD22ED92AD0825E
:100BE00060E272E0AB014E195F0957FF02C04D5F32
:100BF0005F4F5595479555954795498340E659E090
:100C00009A01201B310B37FF02C02D5F3F4F3595F6
:100C10002795359527952A836CE00E942D1A9CE034
:100C2000899FB001112440E050E09A01260F371F40
:100C3000F901EE0FFF1F2E0F3F1FF901EE58FA4F7B
:100C4000908196FD16C04F5F5F4F4C30510569F79C
:100C500081110FC01092800082E080938100109279
:100C6000850010928400B19A80916F008260809319
:100C70006F00E881F0E0CF01880F991FE80FF91F9E
:100C8000EE58FA4F8081806480838881DF91CF9114
:100C90001F910F91FF90EF90DF9008951F920F9298
:100CA0000FB60F9211242F933F934F935F936F933F
:100CB0007F938F939F93AF93BF93EF93FF93809115
:100CC0008A0287FF05C010928500109284001BC025
:100CD00020918A02022E000C330B8091960590E041
:100CE0002817390784F480918A02082E000C990B8A
:100CF000FC01EE0FFF1F8E0F9F1FFC01EE58FA4FF5
:100D0000808186FD15C080918A028F5F80938A0260
:100D100020918A02022E000C330B8091960590E000
:100D200028173907C4F480918A028C3064F113C00B
:100D300080918A02082E000C990BFC01EE0FFF1F18
:100D40008E0F9F1FFC01EE58FA4F808160E08F7379
:100D50000E945302D8CF8091840090918500049620
:100D600080349C4918F480E49CE905C0809184009B
:100D700090918500049690938900809388008FEF6E
:100D800080938A023BC0209184003091850080913D
:100D90008A02082E000C990BFC01EE0FFF1F8E0F2C
:100DA0009F1FFC01EE58FA4F81819281820F931FA1
:100DB000909389008093880080918A02082E000C0D
:100DC000990BFC01EE0FFF1F8E0F9F1FFC01EE58C9
:100DD000FA4F808186FF12C080918A02082E000C93
:100DE000990BFC01EE0FFF1F8E0F9F1FFC01EE58A9
:100DF000FA4F808161E08F730E945302FF91EF915F
:100E0000BF91AF919F918F917F916F915F914F9122
:100E10003F912F910F900FBE0F901F901895880F44
:100E2000991F880F991F20916502E0916602F09149
:100E30006702E80FF91FE20FF11D70832091640231
:100E4000E0916602F0916702E80FF91FE20FF11DD1
:100E5000608320916302E0916602F0916702E80FDF
:100E6000F91FE20FF11D508320916202E0916602AA
:100E7000F09167028E0F9F1FFC01E20FF11D40836E
:100E800080E00895109261021092600210925F0259
:100E9000EFE4F2E0A7E4B2E0119211921D9282E039
:100EA000EF35F807C9F70895CF93863080F5409164
:100EB00067035091680321E030E0672B81F4B901AA
:100EC00002C0660F771F8A95E2F7CB018095909557
:100ED00084239523909368038093670318C0082E9A
:100EE00002C0220F331F0A94E2F7242B352B3093D4
:100EF00068032093670390914602911108C0C82FA0
:100F00000E94DB02BC018C2FCF910C943B13CF913C
:100F10000895BF92CF92DF92EF92FF920F931F93AB
:100F2000CF93DF9300D0CDB7DEB7833008F081C018
:100F3000282F220F220F220F285F253108F024E1ED
:100F4000B62EF82EE82EEE0CEE0CEE0C30E0CC2493
:100F5000C394E21610F58EEF8E0D8231D8F40E2D6B
:100F600010E0F801EF51FB4F9081923098F4DD24AE
:100F7000D3948C2D8B2109F4D12C000F111F9130AB
:100F800009F043C03C29F801EB50FB4F8D2D90E058
:100F900091838083CC0CE394DCCFF1100AC03C7FBA
:100FA000F8948BB1632F609568233B21632B6BB959
:100FB0002AC081E0F8121AC02B2D2323F89495B192
:100FC000832F8F7380958923922F9F73892B85B9E7
:100FD00088B12295269526952370329536953695BB
:100FE000337030958323822B88B90DC03F70F894FD
:100FF00088B1632F660F660F609568233B21330F1E
:10100000330F632B68B9789414C0DD2009F4BBCF8B
:10101000F801EB50FB4F80819181019709F4B3CF28
:1010200062E08E2D2A8339830E949F022A813981B2
:10103000AACF0F900F90DF91CF911F910F91FF904A
:10104000EF90DF90CF90BF9008956F927F928F9234
:101050009F92AF92BF92CF92DF92EF92FF920F9347
:101060001F93CF93DF931F92CDB7DEB7982F3B012D
:10107000843108F004C1082F10E0F801EF51FB4F54
:101080008081833009F490C0843009F0F8C0925018
:10109000923108F0EDC0F801E25DFD4FE080F12CE7
:1010A0006701CC0CDD1C603282E078070CF042C096
:1010B00077FD05C0653B710524F4DB0104C0A0E0A9
:1010C00001C0A4EBB0E0F601EE0DFF1DE956FA4FAA
:1010D000818128E830E04901881A910887FD9394BE
:1010E000880C991C880C991C092C000CAA08BB08B8
:1010F000828128E532E0281B310987FD3395220FD4
:10110000331F220F331FA901330F660B770B9A0190
:10111000AB01281939094A095B090E94F41924EB2B
:1011200030E040E050E00E94CA19820E931EA41ED7
:10113000B51E01C04B01F601EE0DFF1DE956FA4F39
:1011400020812C3008F094C0318188E890E0831B26
:10115000910937FD9395880F991F880F991F88165D
:10116000990684F0828148E552E0481B510987FDC9
:101170005395440F551F440F551FC4014815590579
:101180000CF4CA010297880F991F4FB7F89430E00A
:10119000F901EE0FFF1F2E0F3F1FF901EE58FA4F16
:1011A000928381834FBF64C0933049F08BEF890FE6
:1011B000823028F087EF890F833008F059C061E052
:1011C000892F99830E949F0299816114710411F4FF
:1011D00060E005C08FEF6816710429F461E0892F83
:1011E0000E94530245C0F801E454FF4FE491E330FC
:1011F000F9F048F4E130B9F0E230A1F584B580624D
:1012000084BD68BC35C0E730E9F0E83019F1E4305E
:1012100049F58091800080628093800070928B00FD
:1012200060928A0025C084B5806884BD67BC20C0F8
:101230008091800080688093800070928900609225
:10124000880016C08091B00080688093B0006092E2
:10125000B3000EC08091B00080628093B0006092B5
:10126000B40006C080E8681671040CF0B7CFB0CFA8
:10127000000F111FF801EB50FB4F718260820F903D
:10128000DF91CF911F910F91FF90EF90DF90CF9062
:10129000BF90AF909F908F907F906F9008959EEF3A
:1012A000980F923180F4E82FF0E0DF01AF51BB4F8F
:1012B0009C91913041F4EE0FFF1FEB50FB4F608388
:1012C00071830C9453020895FF920F931F93CF9351
:1012D000DF9300D0CDB7DEB7082F10E0F801EB5C4C
:1012E000FC4F9081F62EF9220E5B1D4F411104C078
:1012F000F80190819F1511F12F2D30E03A83298359
:10130000A0919E04B0919F041097B1F0682FED91C9
:10131000FC9111976F7060690190F081E02DCD0113
:10132000099522E030E0AE014F5F5F4F62E070E070
:101330008EE994E00E948003F801F0820F900F90F4
:10134000DF91CF911F910F91FF900895CF92DF927F
:10135000EF92FF920F931F93CF93DF931F92CDB71E
:10136000DEB7E82E6B01F42E6F3F8FEF780709F19F
:1013700081E080939D03E092BF0310929E03109240
:10138000C0038EE195E029830E94AD012981822F5F
:101390000E942F14E0917103F0917203E230F10585
:1013A00050F0EE0FFF1FEE0FFF1F35973197F1F74B
:1013B00002C0C12CD12C80919C038111FCCF2F2D18
:1013C00080E28F1508F420E281E080939C038093F3
:1013D0009B039FEF90939A0310929903920F90931F
:1013E000980380937703809177039E2D990F892B23
:1013F0008093770380917603813061F410927603B5
:10140000809177038093BB008091BC0083FDF8CF6F
:1014100085EC01C085EE8093BC0080919C038130F7
:10142000E1F380919903821710F420919903A8E7C2
:10143000B3E048E652E0FA018E2F841B821718F4BD
:101440008D918193F9CF10928902209388020F2DFC
:1014500010E030E0021713071CF48DE291E005C0A4
:101460002017310724F48AE491E00E94EC13E09203
:10147000E502C092E602C12CD12CC016D10634F48C
:101480009091880280918902981312C0F394F3948A
:101490006F2D70E045EE52E087E70F90DF91CF911E
:1014A0001F910F91FF90EF90DF90CF900C949F13BE
:1014B0008EE195E00E946101F601EB51FD4F8283C0
:1014C0008FEFC81AD80AD9CFA82FB0E0A25DBD4FC0
:1014D0009C91292F30E0F901EE0FFF1F2E0F3F1FC7
:1014E000F901E956FA4FE081F0E09F01220F331F26
:1014F000E20FF31FEE58FA4F80818F7B808380913B
:101500002C02981306C0992379F0915090932C02E5
:101510000BC0882349F0E0912D02EF5FE0932D028C
:10152000F0E0E852FD4F90838FEF8C930895DB013C
:1015300090912C029C30A8F530912D02682F70E01C
:10154000332369F0E32FF0E0E852FD4F8081FB0187
:10155000E25DFD4F8083315030932D0207C0FB01C7
:10156000E25DFD4F90839F5F90932C02FB01E25D53
:10157000FD4F808190E09C01220F331F820F931F4B
:101580001A161B0634F4141615061CF49A01AD0144
:1015900004C020E639E040E252E089569A4F0C94AC
:1015A000CC0586E691E00C94EC138F929F92AF925B
:1015B000BF92CF92DF92EF92FF920F931F93CF9340
:1015C000DF931F92CDB7DEB7C82ED12C9601225AD9
:1015D0003B4F4901F901ED57FF4F90819F3709F4C7
:1015E00047C1963041F490914502992321F066302D
:1015F000710509F01FC17B01182F0EEF080F023192
:10160000F8F464307105E1F0F601E25DFD4F808190
:101610008C30B0F490E0FC01EE0FFF1F8E0F9F1F87
:10162000FC01E956FA4F808190E0FC01EE0FFF1FAC
:101630008E0F9F1FFC01EE58FA4F808186FD00C17E
:1016400092EF910F963068F461E070E082E0E81666
:10165000F10411F060E070E0892F99830E94540733
:101660009981023118F5E12FE695E695E695812FEF
:101670008770F0E0EB5CFC4FE114F10421F02BE00B
:10168000E216F10449F421E030E001C0220F8A950E
:10169000EAF78081282B09C021E030E001C0220F49
:1016A0008A95EAF720958081282320835601AA0C89
:1016B000BB1CF501EB50FB4F118210823CE0E3169E
:1016C000F10408F0A6C0F701EC5CFF4F0C94391A46
:1016D000963008F0CDC0023120F460E0812F0E94E6
:1016E0009F02F401ED57FF4F80818F3709F4C0C08E
:1016F00082E08DC0023108F0BBC060E0812F0E9403
:101700009F02F401ED57FF4F80818F3709F4B0C07D
:101710001082AEC0023108F0ABC062E0812F0E949F
:101720009F02F401ED57FF4F80818F3711F08BE05E
:101730008083F501EB50FB4F81E090E09183808343
:1017400097C0023108F094C060E0812F0E945302DC
:1017500061E0812F0E949F02F401ED57FF4F8081CD
:101760008F3709F485C081E052C0133049F08BEF08
:10177000810F823028F087EF810F833008F078C026
:1017800061E0812F0E949F0261E0812F0E949F02F1
:1017900060E0812F0E945302F401ED57FF4F8081DA
:1017A0008F3709F465C083E032C0023108F060C0B1
:1017B000F401ED57FF4F80818F3711F084E0808373
:1017C000F601E25DFD4F80818F3FF1F190E0FC0179
:1017D000EE0FFF1F8E0F9F1FFC01E956FA4F80810D
:1017E00090E0FC01EE0FFF1F8E0F9F1FFC01EE58D3
:1017F000FA4F808186FD3CC027C012511230C0F5DF
:10180000F401ED57FF4F80818F3791F186E080839F
:101810002FC08AE791E00F90DF91CF911F910F9138
:10182000FF90EF90DF90CF90BF90AF909F908F9000
:101830000C94EC13109245029FEF90930001DBCEC5
:10184000812F0E94640AFCCE4FEF5FEF6FEF7FEFB6
:10185000812F0F90DF91CF911F910F91FF90EF900B
:10186000DF90CF90BF90AF909F908F900C94970A8D
:101870000F90DF91CF911F910F91FF90EF90DF902C
:10188000CF90BF90AF909F908F900895DC0170E053
:10189000FB01E855FF4FE4911896EC9318976C56AE
:1018A0007F4FFB018491E82FF0E0EE0FFF1FE6571A
:1018B000FF4F8591949115969C938E931497FB01FD
:1018C0006491E62FF0E0EE0FFF1FE058FF4F859187
:1018D000949117969C938E9316970895CF92DF92CA
:1018E000EF92FF920F931F93CF93DF936C017A01D6
:1018F0008B01C0E0D0E0CE15DF0589F0D8016D91F5
:101900008D01D601ED91FC910190F081E02DC60191
:101910000995892B11F47E0102C02196ECCFC701F5
:10192000DF91CF911F910F91FF90EF90DF90CF90BB
:101930000895FC01538D448D252F30E0842F90E0D5
:10194000821B930B541710F0CF96089501970895BA
:10195000FC01918D828D981761F0828DDF01A80FB7
:10196000B11D5D968C91928D9F5F9F73928F90E0D9
:1019700008958FEF9FEF0895FC01918D828D981748
:1019800031F0828DE80FF11D858D90E008958FEF85
:101990009FEF089581EC93E00E94940021E0892B51
:1019A00009F420E0822F08950E946C1BEF92FF92B1
:1019B0000F931F93CF93DF93EC0181E0888F9B8D72
:1019C0008C8D981305C0E889F989808185FD24C034
:1019D000F62E0B8D10E00F5F1F4F0F731127E02EB7
:1019E0008C8DE8120CC00FB607FCFACFE889F98994
:1019F000808185FFF5CFCE010E943202F1CF8B8D21
:101A0000FE01E80FF11DE35AFF4FF0820B8FEA89C8
:101A1000FB898081806207C0EE89FF896083E88945
:101A2000F98980818064808381E090E0DF91CF91AB
:101A30001F910F91FF90EF900895CF93DF93EC01EA
:101A4000888D8823C9F0EA89FB89808185FD05C0DE
:101A5000A889B9898C9186FD0FC00FB607FCF5CF18
:101A6000808185FFF2CFA889B9898C9185FFEDCF60
:101A7000CE010E943202E7CFDF91CF9108951F92ED
:101A80000F920FB60F9211242F933F934F935F93B2
:101A90006F937F938F939F93AF93BF93EF93FF9336
:101AA00081EC93E00E943202FF91EF91BF91AF91E0
:101AB0009F918F917F916F915F914F913F912F9166
:101AC0000F900FBE0F901F9018951F920F920FB698
:101AD0000F9211242F938F939F93EF93FF93E09195
:101AE000D103F091D2038081E091D703F091D80324
:101AF00082FD12C090818091DA038F5F8F732091F5
:101B0000DB03821751F0E091DA03F0E0EF53FC4F72
:101B1000958F8093DA0301C08081FF91EF919F91AF
:101B20008F912F910F900FBE0F901F9018956F926D
:101B30007F928F929F92AF92BF92CF92DF92EF925D
:101B4000FF920F931F93CF93DF93EA018F3609F42F
:101B5000B6C1162F803778F4893609F482C220F492
:101B6000813509F490C251C58B3609F4D3C18D3645
:101B700009F426C24AC5863761F020F4803709F49B
:101B80003EC143C5883709F4F1C08A3709F483C1DF
:101B90003CC52981922F987125FF03C08BEF91E0FE
:101BA00062C0888131E026FB222720F92327983064
:101BB00069F160F4911129C530939D038093BF03AF
:101BC00010929E031092C00302E007C0903109F406
:101BD00044C0983109F47DC018C5011778F4FE019E
:101BE000E00FF11D8181608130E8839F601911242D
:101BF0008EE195E00E94AD010E5FEFCF81E00E9483
:101C00002F1483E191E00197F1F7FFC44A816B81C2
:101C1000163069F490E8699FB0011124640F711DBA
:101C20009D814C81E0E89E9F4019112406C0F0E898
:101C30006F9F401911246FEF7FEFDF91CF911F91BC
:101C40000F91FF90EF90DF90CF90BF90AF909F905B
:101C50008F907F906F900C94A609E0910001E7307F
:101C600094F08BE192E0DF91CF911F910F91FF9063
:101C7000EF90DF90CF90BF90AF909F908F907F902C
:101C80006F900C94EC139A814B81663069F430E8C4
:101C9000439FA0011124490F511D3D819C8160E8A3
:101CA000369F9019112406C0F0E84F9F9019112417
:101CB0004FEF5FEFEF5FE093000135E0E302F001EB
:101CC0001124E15CFC4F80835283418393832483FE
:101CD0009CC420910001121614F08FEF44C090E0D4
:101CE000622F022E000C770B35E0492F50E064176D
:101CF000750774F0349FF001359FF00D1124E15CFD
:101D0000FC4F4081481302C085E026C09F5FEDCFA5
:101D100090E0FACF9830F8F4FA0131968E9FD00116
:101D20008F9FB00D1124A15CBC4F3C91849FF001AA
:101D3000859FF00D1124E15CFC4F308311964D918D
:101D40005C9112975283418313963C91139733838E
:101D500014963C9134839F5F492F50E064177507B8
:101D6000CCF68FEF820F809300014FC428818981C8
:101D700040E8849FC0011124820F911D009721F03B
:101D800090937203809371038091450281113DC449
:101D9000C0E08EEE8C0F823028F466E070E08C2F6D
:101DA0000E94D50ACF5FC431A1F781E0809345023C
:101DB000109289021092880210929E031092C00322
:101DC00010929C0380939B031092760361E082E162
:101DD0000E94530261E083E10E9453028091B900A6
:101DE0008E7F8093B9008091B9008D7F8093B90078
:101DF00088E48093B80085E48093BC0006C4653015
:101E000008F403C41881F9800A81EB80CC818EEF3D
:101E1000810F823108F0F9C3E12FF0E0E25DFD4F60
:101E200020812C30B0F430E0F901EE0FFF1F2E0FAF
:101E30003F1FF901E956FA4F208130E0F901EE0F1A
:101E4000FF1F2E0F3F1FF901EE58FA4F808186FDCC
:101E5000C2C360E8C69FA00111244E0D511D80E849
:101E6000089FB00111246F0D711D812F0E94970AE8
:101E700064E070E0812FDF91CF911F910F91FF906F
:101E8000EF90DF90CF90BF90AF909F908F907F901A
:101E90006F900C94D50A623008F4B7C32881898109
:101EA000E0E88E9FC0011124820F911D009711F46C
:101EB00081E090E09093020180930101A6C362301B
:101EC00008F4A3C3898190E0623091F02A81F0E8A0
:101ED0002F9F90011124822B932B633049F02B818B
:101EE00030E030E4239F302D22271124822B932BC6
:101EF000BC018881DF91CF911F910F91FF90EF90EE
:101F0000DF90CF90BF90AF909F908F907F906F9019
:101F10000C94250880EF0E9422148CE60E94221463
:101F2000CEEF84EF8C0F863038F482E00E942214CA
:101F30008AE00E94221409C0C13039F483E00E9473
:101F4000221488E00E94221408C08DEF8C0F82308A
:101F5000A8F389EF8C0F833088F3C23130F484E02A
:101F60000E9422148EE00E94221480EF8C0F823097
:101F700030F486E00E94221481E00E9422148FE750
:101F80000E942214CF5FC23151F1C23150F680E07D
:101F90000E94221481E00E9422148BE00E942214ED
:101FA00081E00E94221481E00E94221481E00E94BC
:101FB000221481E50E94221481E00E942214B1CFF4
:101FC000662309F422C3C88180EF0E9422148EE6A2
:101FD0000E9422148C2F0E942214C43188F087EFB3
:101FE000DF91CF911F910F91FF90EF90DF90CF90F5
:101FF000BF90AF909F908F907F906F900C94221421
:10200000D0E0FE01EF51FB4F80810E942214CC0FE3
:10201000DD1F8E010B501B4FF80180818F770E94CE
:102020002214F801808191819C012078232B39F0C2
:10203000880F892F881F990B8F770E942214CB500D
:10204000DB4F888199819C012227307C232B39F238
:10205000990F880B990F982F881F8F770E94221451
:10206000BECF80EF0E9422148AE60E942214C2EFA3
:10207000C63010F48C2F01C08FE70E942214CF5F6E
:10208000C630B1F7ACCF662309F4BFC29881892F5F
:102090008F70833009F4CAC030F4813009F420C154
:1020A000823041F0B2C2843009F467C0853009F44F
:1020B000E9C1ABC2809175038111A7C280917403FD
:1020C0008111A3C281E08093750360E019E08091E3
:1020D0006102681708F04EC0862F90E0AC01495BA2
:1020E0005D4FFA012081222309F440C0E09066028E
:1020F000F0906702189FE001199FD00D1124C65D72
:10210000DA4FEE81FF8190818885892B8083AC81B5
:10211000BD81888528813981220F331F220F331F0B
:10212000EA81FB81EE0FFF1FEE0FFF1FEE0DFF1D7B
:102130007C91982F90959723872B7FB7F8942E0F3B
:102140003F1FE217F30781F0C191D8E08C9300C0E4
:10215000C7FF9C93CC0F00C000C000C008F49C9344
:1021600000C0DA9599F7EDCF7FBF7894FA0110821D
:102170006F5FADCF1092750348C24981CA800B8151
:102180008C8190917403911140C290E0A0E0B0E086
:10219000C5E1880F991FAA1FBB1FCA95D1F710E090
:1021A00020E030E0DEE0000F111F221F331FDA9520
:1021B000D1F7800F911FA21FB31F840F911DA11D86
:1021C000B11DD12CE12CF12C17E0CC0CDD1CEE1C48
:1021D000FF1C1A95D1F7C80ED91EEA1EFB1EC114AA
:1021E000D104E104F10489F440915F02509160024E
:1021F000440F551F440F551F60E070E08091660248
:10220000909167020E948C1BCFC1C0E0D0E080910A
:102210005F0290916002C817D90708F0C5C1B701E5
:10222000A601CE010E940F072196F1CF99812A8144
:102230008B814C81CD800E81309174033111E5C1C9
:10224000C92FD0E0F0E82F9FC00DD11D112420919F
:102250005F0230916002C217D30768F510E020E0FA
:1022600030E055E1000F111F221F331F5A95D1F79F
:10227000D12CE12CF12C6EE0CC0CDD1CEE1CFF1CF3
:102280006A95D1F70C0D1D1D2E1D3F1D080F111D48
:10229000211D311D50E060E070E0E7E0440F551F64
:1022A000661F771FEA95D1F7400F511F621F731FFA
:1022B000CE010E940F0720916102AFE4B2E080E0FE
:1022C00090E0821708F0A1C1FC014D915D9101964B
:1022D000C417D507B0F7E95BFD4F81E0808395C156
:1022E000913009F092C1633008F48FC1D09073032C
:1022F0000E944207D11014C06BEA169FC12C112412
:10230000C6941FE4E12E12E0F12E0AE215E02396B6
:10231000912C8824839482E0782E94E0692E5AC010
:10232000BAE2EB2EB5E0FB2E00E0602FC7010E9461
:10233000460C0F5F39E0E30EF11C0830B1F7DCCF3B
:10234000F501208130E0A5E035952795AA95E1F7C4
:102350002130310509F45AC00CF048C0232B31F468
:10236000109263028092640270926202FE013197C1
:1023700080812881F0E82F9F90011124280F311DC2
:10238000F80131832083992009F44CC0F70132977A
:1023900080819181280F391FF701219331937F01AB
:1023A000F80193838283A0905F02B09060028081E5
:1023B0009181A80EB91EB0926002A0925F02809136
:1023C00061028F5F809361029394075F1F4F239692
:1023D0009C1459F1CE0102975C01D110B1CFFC01E0
:1023E00060816F71C8010E94460CAACF223031056E
:1023F00091F02330310509F0B9CF10926302809239
:1024000064027092620260926502B0CF1092640220
:1024100080926302A9CF109262028092640270924D
:102420006302A4CF80E090E0B5CF809166029091E6
:102430006702009731F00E94D41A10926002109245
:102440005F02A114B10409F4E0C0E501CC0FDD1F67
:10245000CC0FDD1FCE010E943F1A9093670280933C
:102460006602009751F0AE0160E070E00E948C1BA4
:10247000B0926002A0925F02C8C0109260021092F7
:102480005F02C3C08981082F0F7109F48DC085FBDD
:10249000CC24C0F8C02FCC0FCC0F91E090937403E4
:1024A000D0E010E086FBDD24D0F886FF27C0CE0107
:1024B0000E943F1A7C01009729F0AE0160E070E0B5
:1024C0000E948C1BCC2039F060915F0270916002F9
:1024D000601B710B02C060E070E0660F771F660F33
:1024E000771F8091660290916702680F791FAE0195
:1024F000C7010E94711BC11072C018C0CC20B1F07E
:10250000809166029091670240915F025091600253
:10251000401B510B440F551F440F551FBC018C0F1E
:102520009D1F0E947A1B20E030E02DC08091660242
:102530009091670240915F0250916002401B510BE5
:10254000440F551F440F551FBC016C0F7D1F0E9487
:102550007A1B20915F0230916002201B310BDD203D
:1025600091F0220F331F220F331F8091660290914A
:102570006702AE01B701820F931F0E94711BC70152
:102580000E94D41A0FC0220F331F220F331F8091D5
:10259000660290916702AE0160E070E0820F931FC7
:1025A0000E948C1B109274034091610250E061E024
:1025B00070E087E492E0DF91CF911F910F91FF903F
:1025C000EF90DF90CF90BF90AF909F908F907F90D3
:1025D0006F900C948C1B812F0E94640A3ACC8091DE
:1025E00066029091670240915F0250916002401B29
:1025F000510B440F551F440F551FBC018C0F9D1FDD
:102600000E947A1B20E030E0ACCFDF91CF911F9188
:102610000F91FF90EF90DF90CF90BF90AF909F9081
:102620008F907F906F900895833020F5282F30E0B1
:10263000F901E85CFC4F6083672BE1F0F901EB5C8A
:10264000FC4F9081811103C069B16C7F0FC0813054
:1026500049F463B136B140E4349F900111246F73A3
:10266000622B04C066B16C7366956695692341E080
:102670000C94640908951F93CF93DF9300D0CDB7D6
:10268000DEB7182F7A83698380919E0490919F040E
:10269000009709F44EC0DC01ED91FC911031A8F4D3
:1026A0006115704490F4612F606E0190F081E02D0F
:1026B000099522E030E0AE014F5F5F4F62E070E0CD
:1026C0008EE994E00E94800334C00190F081E02DF7
:1026D00060EF099580919E0490919F04DC01ED913B
:1026E000FC910190F081E02D6FE6099580919E04A8
:1026F00090919F04DC01ED91FC910190F081E02D1F
:10270000612F099522E030E0AE014F5F5F4F62E03C
:1027100070E08EE994E00E94800380919E04909185
:102720009F04DC01ED91FC910190F081E02D67EFB9
:1027300009950F900F90DF91CF911F910895EF921F
:10274000FF920F931F93CF93DF93C82F80919E0426
:1027500090919F040097C9F17A018B01DC01ED9102
:10276000FC910190F081E02D60EF099580919E042D
:1027700090919F04DC01ED91FC910190F081E02D9E
:102780006C2F0995E7010E0D1F1DC017D10759F0D9
:1027900020E030E0AE0161E070E08EE994E00E945C
:1027A00080032196F2CF80919E0490919F04DC01DA
:1027B000ED91FC910190F081E02D67EFDF91CF91D9
:1027C0001F910F91FF90EF900994DF91CF911F918E
:1027D0000F91FF90EF900895FC0101900020E9F720
:1027E0003197BF01681B790BAC0181E70C949F13F3
:1027F000CF93DF93FC01A081B181109701F1EC012F
:10280000ED91FC9111970190F081E02D69EFCD01E0
:10281000099588819981DC01ED91FC910190F0810D
:10282000E02D62E0099588819981DC01ED91FC91B0
:102830000190F081E02D65E0DF91CF910994DF9167
:10284000CF910895A091DC04B091DD04ED91FC914D
:1028500011970190F081E02D682FCD010994382F58
:102860002091C0039091BF03213208F049C08091AC
:102870009C038111FCCF42E040939C0330939B0367
:102880003FEF30939A031092990320939803AFE996
:10289000B3E048E753E0FA013E2F341B321718F437
:1028A0003D913193F9CF1092770320917703990FDF
:1028B000922B9093770390917603913061F410926C
:1028C0007603909177039093BB009091BC0093FDA9
:1028D000F8CF95EC01C095EE9093BC0090919C03CD
:1028E0009230E1F390919A039F3F79F080919A039F
:1028F000803241F080919A03803331F084E005C04A
:1029000081E003C082E001C083E010929E03109238
:10291000C00310929D0308951F93CF93DF93182F48
:10292000EB018091A3049091A4046817790748F4FF
:102930006091A1047091A204C60FD71F188380E094
:1029400018C0E091D004F091D104309711F481E0E7
:1029500010C081E08093A0048091BC049091BD04DC
:1029600009958091A3049091A404C817D90778F71A
:10297000DFCFDF91CF911F910895CF93DF93EC01CB
:10298000FB0120E030E0CF01861B970B2C173D07A1
:1029900078F4DB01A20FB31F9C91908311964C91A8
:1029A000479544274795942B91932E5F3F4FEBCF4C
:1029B000DF91CF9108950895789484B5826084BDA5
:1029C00084B5816084BD85B5826085BD85B5816033
:1029D00085BD80916E00816080936E0010928100B1
:1029E000809181008260809381008091810081606C
:1029F000809381008091800081608093800080912D
:102A0000B10084608093B1008091B00081608093B8
:102A1000B00080917A00846080937A0080917A007F
:102A2000826080937A0080917A00816080937A003E
:102A300080917A00806880937A001092C10088E1CA
:102A40008093DE048091DF049091E0040E94D41A08
:102A5000C091DE04D0E0CE0101960E943F1A90930F
:102A6000E0048093DF04FC01EC0FFD1F108212E0F4
:102A7000DC011C9325E011962C93AE0142505109C4
:102A800064EE71E002960E94931B85E298E09093B9
:102A9000300380932F0389E897E090932E0380936F
:102AA0002D0384E597E090932C0380932B0384E11E
:102AB00093E190932A038093290385ED9AE0909304
:102AC0002803809327038FE499E090932603809353
:102AD000250387E99DE0909332038093310387EECD
:102AE00091E09093340380933303E091D103F0910C
:102AF000D2031083E091D103F091D2031082E091D0
:102B0000CD03F091CE031082E091CF03F091D0037A
:102B100080E180831092D903E091D503F091D60330
:102B200086E08083E091D303F091D40380818061BB
:102B30008083E091D303F091D40380818860808307
:102B4000E091D303F091D403808180688083E09189
:102B5000D303F091D40380818F7D808380911D0504
:102B6000811150C061E08DE00E949F0262ED70E033
:102B700080E090E00E94F20261E08DE00E9453024A
:102B800068E270E080E090E00E94F20260E08DE098
:102B90000E94530262ED70E080E090E00E94F20239
:102BA00061E08DE00E94530268E270E080E090E016
:102BB0000E94F20260E08DE00E9453026AEF70E032
:102BC00080E090E00E94F202C0E062ED70E080E000
:102BD00090E00E94F20261E08DE00E94530268E200
:102BE00070E080E090E00E94F20260E08DE00E94E0
:102BF0005302CF5FC53049F76DE770E080E090E0A9
:102C00000E94F20281EC93E09093DD048093DC0457
:102C100090939F0480939E048EE994E00E94F813A1
:102C20008EE594E00E9427040E94E7010E9442077B
:102C3000EE24E394C2E0D0E001E010E025E0D22EE3
:102C400080913803882349F069B180913503682366
:102C50006C7F40E080E00E94640980913903882302
:102C600079F063B196B1B0E49B9FC00111246F73FA
:102C7000862B60913603682340E081E00E9464095E
:102C800080913A038823E1F066B16C73669566958E
:102C900080913703682340E082E00E94640910C0FD
:102CA0008091DC049091DD04DC01ED91FC910284C3
:102CB000F385E02D09959C018F3FBFEF9B0771F4D1
:102CC0008091DC049091DD04DC01ED91FC910084A5
:102CD000F185E02D0995892B19F7BEC1982F8091B8
:102CE000A904882309F492C0973F09F07EC010928E
:102CF000A904A091A104B091A2046C916137C1F123
:102D0000693709F05CC0E091D604F091D7043097A0
:102D1000B9F28091AA049091AB048330910538F404
:102D200020E030E040E050E060E070E01BC0BD011A
:102D30006D5F7F4F03970E94BD14BC016D5F7F4F95
:102D400080E00E948C14E091A104F091A2049F0104
:102D50002D5F3F4F428150E0618170E0E091D604E9
:102D6000F091D7048091B8049091B9040995A8CF47
:102D70008091D2049091D304892B09F4A1CFBD0195
:102D80006F5F7F4F8091AA049091AB0401970E94DE
:102D9000BD14BC016F5F7F4F80E00E948C14609176
:102DA000A1047091A2046F5F7F4FE091D204F09173
:102DB000D3048091BE049091BF04099581CFE09126
:102DC000D404F091D504309709F47ACF9D012F5F98
:102DD0003F4F4091AA045091AB044150510980915A
:102DE000C0049091C10409956BCF6091AA047091C1
:102DF000AB04822F0E948C148091AA049091AB04A2
:102E000001969093AB048093AA045ACF6091A704D3
:102E10007091A8046115710509F4AFC027FDADC01C
:102E2000615071097093A8046093A704822F0E94D7
:102E30008C148091A7049091A804892B09F040CFAD
:102E40008091A504882309F43BCF803D09F47FC01D
:102E500030F4803939F1803C09F466C08BC0843F7E
:102E6000E1F1853F09F44DC0803E09F083C0E09157
:102E7000C404F091C504309709F47CC0A091A1046A
:102E8000B091A2048C9111964C9150E020E8829F61
:102E9000400D511D11246091A6048091AC049091C5
:102EA000AD0467C0E091C604F091C704309709F4FF
:102EB00061C0A091A104B091A2048C9111964C9193
:102EC00050E090E8899F400D511D11246091A604A7
:102ED0008091AE049091AF044CC0E091CC04F0918D
:102EE000CD04309709F446C0A091A104B091A2048A
:102EF0004C9150E011966C918091B4049091B5047E
:102F000038C0E091CE04F091CF04309799F1A091B0
:102F1000A104B091A2044C9150E011966C91809163
:102F2000B6049091B70425C0E091C804F091C9049B
:102F3000309701F1A091A104B091A2044C9150E00E
:102F40006091A6048091B0049091B10412C0E09108
:102F5000CA04F091CB04309769F0A091A104B0911C
:102F6000A2044C9150E06091A6048091B20490912B
:102F7000B30409951092A504A3CE903F30F4822F9C
:102F80008F708093A604922F907F903F79F158F430
:102F9000903C29F118F49039E9F092CE903DF9F087
:102FA000903EC1F08DCE993F09F449C028F48CE0E1
:102FB000890F823078F084CE9F3F09F081CE109245
:102FC000A8041092A7041092A5041092A60480E011
:102FD00090E013C0D093A804C093A70404C010933A
:102FE000A8040093A7049093A5046ACEE092A904D4
:102FF0001092AB041092AA0463CE2091A3043091E6
:10300000A4048217930748F4E091A104F091A2046C
:10301000E80FF91F10820196F0CF1092A9041092C8
:10302000AB041092AA04E091DA04F091DB0430972B
:1030300009F446CE8091C2049091C3040BC0E09184
:10304000D804F091D904309709F43ACE8091BA04AB
:103050009091BB04099534CE8FB7F89480903B03D0
:1030600090903C03A0903D03B0903E038FBF8092B0
:103070006D0390926E03A0926F03B09270038091E3
:10308000690390916A03A0916B03B0916C03409126
:1030900001015091020160E070E0881A990AAA0AC1
:1030A000BB0A481559056A057B0508F052C0840F14
:1030B000951FA61FB71F8093690390936A03A0937F
:1030C0006B03B0936C0381EEA82E84E0B82E92EFD0
:1030D000F92EB5E0BF15B8F0F5018081823099F482
:1030E00080916703909168030F2C02C09595879596
:1030F0000A94E2F780FF07C08F2D0E94DB02BC011B
:103100008F2D0E943B13F394FFEFAF1ABF0A26E006
:10311000F212DFCF8091000187FD1BC0F12C2F2D13
:1031200030E080910001082E000C990B8217930764
:1031300084F0D29EF001D39EF00D1124E15CFC4F8F
:10314000618172812481438180810E94A609F39468
:10315000E6CF0E94A00074CD1092C4031092C30366
:1031600048EE53E060E070E04093C5035093C6031F
:103170006093C7037093C8038DE091E09093C203FE
:103180008093C10385EC90E09093CE038093CD03B0
:1031900084EC90E09093D0038093CF0380EC90E098
:1031A0009093D2038093D10381EC90E09093D40369
:1031B0008093D30382EC90E09093D6038093D50361
:1031C00086EC90E09093D8038093D7031092DA03B3
:1031D0001092DB031092DC031092DD038EE594E085
:1031E00010929F0410929E049093A2048093A104D5
:1031F00020E430E03093A4042093A3041092A504AB
:103200001092A6041092A8041092A7041092A90488
:103210001092AB041092AA041092AD041092AC0468
:103220001092AF041092AE041092B1041092B00448
:103230001092B3041092B2041092B5041092B40428
:103240001092B7041092B6041092BD041092BC0400
:103250001092BF041092BE041092C1041092C004D8
:103260001092C3041092C2041092D1041092D004A0
:103270001092A0041092DE041092E0041092DF0479
:1032800010921D0525E131E03093C5042093C4045C
:103290002BE031E03093C7042093C6042DEE30E0DC
:1032A0003093C9042093C80423EE30E03093CB045C
:1032B0002093CA0421E031E03093CD042093CC0464
:1032C00027EF30E03093CF042093CE0422EE30E09D
:1032D0003093D3042093D20427ED30E03093D5040B
:1032E0002093D40429E934E03093D7042093D60402
:1032F0009093B9048093B80420EE31E03093D90460
:103300002093D8049093BB048093BA048FEC90E090
:103310009093DB048093DA0410922105109220052B
:10332000409322055093230560932405709325054F
:103330008FE191E090931F0580931E05EAE2F5E08E
:103340001182108213821282399625E0E237F20749
:10335000B9F780919605A7E9B5E09FEF48EB5BE0F0
:103360008C3078F48C93282F30E0F901EE0FFF1F9A
:103370002E0F3F1FF901EE58FA4F528341838F5FA2
:1033800001C09C93139625E0AB3BB20749F78093AD
:1033900096050895052E97FB1EF400940E94E119EE
:1033A00057FD07D00E94FC1907FC03D04EF40C9483
:1033B000E11950954095309521953F4F4F4F5F4F04
:1033C000089590958095709561957F4F8F4F9F4F91
:1033D00008950E941E1AA59F900DB49F900DA49F62
:1033E000800D911D11240895B7FF0C94E9190E94D6
:1033F000E919821B930B0895A1E21A2EAA1BBB1B8D
:10340000FD010DC0AA1FBB1FEE1FFF1FA217B307B0
:10341000E407F50720F0A21BB30BE40BF50B661FC6
:10342000771F881F991F1A9469F76095709580958A
:1034300090959B01AC01BD01CF010895A29FB00101
:10344000B39FC001A39F700D811D1124911DB29FD8
:10345000700D811D1124911D0895991B79E004C000
:10346000991F961708F0961B881F7A95C9F78095C3
:103470000895EE0FFF1F0590F491E02D0994CF936E
:10348000DF938230910510F482E090E0E091BD0579
:10349000F091BE0520E030E0C0E0D0E0309711F1BF
:1034A0004081518148175907C0F04817590761F406
:1034B00082819381209719F09B838A832BC09093FC
:1034C000BE058093BD0526C02115310519F04217B0
:1034D000530718F49A01BE01DF01EF010280F38166
:1034E000E02DDCCF2115310509F1281B390B2430E3
:1034F000310590F412968D919C9113976115710589
:1035000021F0FB019383828304C09093BE058093D6
:10351000BD05FD01329644C0FD01E20FF31F81930A
:103520009193225031092D933C933AC02091BB05D1
:103530003091BC05232B41F4209105013091060107
:103540003093BC052093BB05209103013091040109
:103550002115310541F42DB73EB740910701509137
:103560000801241B350BE091BB05F091BC05E21767
:10357000F307A0F42E1B3F0B2817390778F0AC0196
:103580004E5F5F4F2417350748F04E0F5F1F509373
:10359000BC054093BB058193919302C0E0E0F0E04D
:1035A000CF01DF91CF9108950F931F93CF93DF93B6
:1035B000009709F48CC0FC013297138212820091AB
:1035C000BD051091BE050115110581F420813181E1
:1035D000820F931F2091BB053091BC052817390736
:1035E00079F5F093BC05E093BB0571C0D80140E0CC
:1035F00050E0AE17BF0750F412962D913C911397EF
:10360000AD012115310509F1D901F3CF9D01DA0191
:103610003383228360817181860F971F82179307FE
:1036200069F4EC0128813981260F371F2E5F3F4F47
:10363000318320838A819B8193838283452B29F464
:10364000F093BE05E093BD0542C01396FC93EE9344
:103650001297ED01499159919E01240F351FE217F0
:10366000F30771F480819181840F951F0296119662
:103670009C938E938281938113969C938E93129741
:10368000E0E0F0E0D80112968D919C91139700979D
:1036900019F0F8018C01F6CF8D919C9198012E5F65
:1036A0003F4F820F931F2091BB053091BC05281717
:1036B000390769F4309729F41092BE051092BD05C0
:1036C00002C0138212821093BC050093BB05DF91E8
:1036D000CF911F910F91089581E090E0F8940C94A0
:1036E000A21BFB01DC0102C001900D924150504031
:1036F000D8F708956817790768F4FB01DC01E40F37
:10370000F51FA40FB51F02C002900E924150504009
:10371000D8F708950C94711BDC0101C06D934150E2
:103720005040E0F70895FB01DC014150504048F063
:1037300001900D920020C9F701C01D9241505040E8
:10374000E0F7089510E0C9E6D0E004C0FE010E9451
:0E375000391A2196CA36D107C9F7F894FFCF6F
:10375E00FF13000000BF05800000000000D60C6EB5
:10376E000C990C1D0D9400A80CBC0C00000000ADB3
:10377E00017D01DD015101750161015201493243A3
:10378E003A20546F6F206D616E7920627974657383
:10379E00207265636569766564004932433A205448
:1037AE006F6F20666577206279746573207265632A
:1037BE006569766564004D617820736572766F7306
:1037CE0020617474616368656400556E6B6E6F770B
:1037DE006E2070696E206D6F6465002F5573657273
:1037EE00732F4C617772656E63652F446F63756DD1
:1037FE00656E74732F5265706F7369746F7269653D
:10380E00732F546573742F6E6F64652D70697865B0
:10381E006C2F6669726D776172652F6275696C6463
:10382E002F6E6F64655F706978656C5F6669726D27
:10383E006174612F6E6F64655F706978656C5F6629
:10384E0069726D6174612E696E6F0031302D62691F
:10385E00742061646472657373696E67206E6F7431
:10386E0020737570706F7274656400746F6F206D65
:0C387E00616E79207175657269657300D8
:00000001FF
