:100000000C945E000C9486000C9486000C94860080
:100010000C9486000C9486000C9486000C94860048
:100020000C9486000C9486000C9486000C94860038
:100030000C9486000C9486000C9486000C94860028
:100040000C9461050C9486000C9486000C94860038
:100050000C9486000C9486000C9486000C94860008
:100060000C94AB050C9486000000000024002700CF
:100070002A0000000000250028002B0004040404CE
:100080000404040402020202020203030303030342
:10009000010204081020408001020408102001021F
:1000A00004081020000000080002010000030407FB
:1000B0000000000000000000D906960711241FBEB2
:1000C000CFEFD8E0DEBFCDBF11E0A0E0B1E0ECEFB4
:1000D000F1E102C005900D92A831B107D9F722E0F5
:1000E000A8E1B1E001C01D92A333B207E1F710E02F
:1000F000CDE5D0E004C02197FE010E949707CC35E2
:10010000D107C9F70E94FB060C94F1080C9400007B
:1001100090E0FC01EC55FF4F2491FC01E057FF4FAC
:100120003491FC01E458FF4FE491EE23B1F1222316
:1001300039F1233091F038F42130A9F0223001F563
:1001400084B58F7D12C0273091F02830A1F0243083
:10015000B9F4809180008F7D03C0809180008F77FB
:10016000809380000DC084B58F7784BD09C08091D5
:10017000B0008F7703C08091B0008F7D8093B00076
:10018000F0E0EE0FFF1FEE58FF4FA591B4918FB72F
:10019000F894EC913E2B3C938FBF0895E0915B0166
:1001A000F0915C01309729F01092D1011092D001AA
:1001B00009940895CF93DF93AC01E091D801F091B9
:1001C000D9013097F1F09091D3018091D201981725
:1001D000C0F090E0292F30E02617370754F4D901FA
:1001E000A55CBE4FEA01C20FD31F88818C939F5F2D
:1001F000F1CF1092D3016093D201CB01DF91CF9167
:100200000994DF91CF910895CF92DF92EF92FF9200
:100210000F931F93CF93DF936C017A018B01C0E0A2
:10022000D0E0CE15DF0589F0D8016D918D01D601A2
:10023000ED91FC910190F081E02DC6010995892B8B
:1002400011F47E0102C02196ECCFC701DF91CF915E
:100250001F910F91FF90EF90DF90CF9008953FB7DF
:10026000F8948091C9019091CA01A091CB01B091FD
:10027000CC0126B5A89B05C02F3F19F00196A11D02
:10028000B11D3FBFBA2FA92F982F8827820F911D2C
:10029000A11DB11DBC01CD0142E0660F771F881F73
:1002A000991F4A95D1F7089585ED8093BC00809100
:1002B000BC0084FDFCCF1092CF01089540917D01D8
:1002C000262F30E0240F311D21323105DCF420913E
:1002D000CF012430C9F4FC0180E090E0861758F487
:1002E00030917D012191DC01A35ABE4FA30FB11DB6
:1002F0002C930196F3CF80917D01680F60937D016F
:1003000080E0089581E0089582E008950895E091E5
:10031000D3018091D201E81730F4F0E0E55CFE4FA4
:10032000808190E008958FEF9FEF08959091D30121
:100330008091D201981750F4E92FF0E0E55CFE4F70
:10034000208130E09F5F9093D30102C02FEF3FEFF9
:10035000C90108958091D20190E02091D301821BC0
:1003600091090895CF93DF9300D0CDB7DEB7CB01CD
:10037000642F49835A830E945E014981842F5A81E8
:10038000952F0F900F90DF91CF910895CF93DF932A
:100390001F92CDB7DEB7698361E0CE0101960E945E
:1003A0005E0181E090E00F90DF91CF910895089574
:1003B00080E090E00895880F991F880F991FE091C1
:1003C0003901F0913A01209138018E0F9F1FFC01F5
:1003D000E20FF11D708320913701FC01E20FF11D46
:1003E000608320913601FC01E20FF11D50832091C2
:1003F0003501FC01E20FF11D408380E00895109269
:1004000034011092330110923201E2E2F1E0AAE1EC
:10041000B1E0119211921D9281E0E233F807C9F721
:100420000895DC0170E0FB01E057FF4FE49118965E
:10043000EC93189764587F4FFB018491E82FF0E00C
:10044000EE0FFF1FEE58FF4F8591949115969C93E8
:100450008E931497FB016491E62FF0E0EE0FFF1FDF
:10046000E859FF4F8591949117969C938E93169718
:1004700008950F931F93CF9307EE11E0C0E06C2F08
:10048000C8010E941102CF5F075F1F4FC830B9F744
:10049000CF911F910F9108950E94CA084F925F92C9
:1004A0006F927F928F929F92AF92BF92CF92DF9284
:1004B000EF92FF920F931F93CF93DF93CDB7DEB7E9
:1004C00060970FB6F894DEBF0FBECDBF7C01B12C94
:1004D0000B2D10E00E151F059CF42FE08BED91E025
:1004E0002B1550F00E949601E1E0F0E0EC0FFD1FAB
:1004F000E00FF11F808302C00E949601B394E8CF01
:100500008981982F9F70933009F4D9C030F49130CD
:1005100009F42EC1923041F0BDC2943009F475C087
:10052000953009F4EEC1B6C2809119018111B2C2B1
:10053000809118018111AEC281E08093190190E091
:1005400009E080913401981708F05CC0292F30E051
:10055000A901465E5E4FDA018C91882309F44EC0F2
:10056000E0903901F0903A01029FD001039FB00D55
:100570001124A951BE4F1696ED91FC911797208139
:1005800018968C911897822B808314966D917C918C
:10059000159718968C9118972D913C911197220FD1
:1005A000331F220F331F1296ED91FC911397EE0F1C
:1005B000FF1FEE0FFF1FEE0DFF1DDB01FC90182F3C
:1005C00010951F21C82ECF28FFB6F8942E0F3F1F7D
:1005D000E217F30789F0E190DB0188E0CC9200C0DC
:1005E000E7FE1C93EE0C00C000C000C008F41C9392
:1005F00000C08A9599F7ECCFFFBE7894DA011C927F
:100600009F5F9FCF1092190145C24A81CB800C8118
:100610008D819091180191113DC290E0A0E0B0E071
:1006200015E1880F991FAA1FBB1F1A95D1F710E07B
:1006300020E030E05EE0000F111F221F331F5A95AB
:10064000D1F7800F911FA21FB31F840F911DA11D11
:10065000B11DD12CE12CF12C67E0CC0CDD1CEE1C83
:10066000FF1C6A95D1F7C80ED91EEA1EFB1EC114E5
:10067000D104E104F10489F4409132015091330135
:10068000440F551F440F551F60E070E08091390101
:1006900090913A010E94EA08C8C100E010E0809100
:1006A0003201909133010817190708F0BEC1B70154
:1006B000A601C8010E94DB010F5F1F4FF0CFEA8047
:1006C0009B815C814D818E810F81209118012111C8
:1006D000E1C1F12CB0E89B9FE00CF11C11242091AA
:1006E000320130913301E216F30668F510E020E0A4
:1006F00030E065E1000F111F221F331F6A95D1F70B
:1007000090E0A0E0B0E07EE0880F991FAA1FBB1F19
:100710007A95D1F7080F191F2A1F3B1F050F111DCE
:10072000211D311D50E060E070E0E7E0440F551FEF
:10073000661F771FEA95D1F7400F511F621F731F85
:10074000C7010E94DB0120913401A2E2B1E080E008
:1007500090E0821708F09EC1FC014D915D910196D9
:10076000E416F506B0F7E65EFE4F81E0808392C1A5
:10077000813009F08FC1E2E0EE1508F08BC10091E5
:10078000DA010E94FF0101110E9439028BEAE89E02
:10079000812D1124182F1695B2E28B2EB1E09B2EDD
:1007A00087EEC82E81E0D82E5E01F4E0AF0EB11CBA
:1007B000712C6624639492E0592E24E0422E950118
:1007C000225031097901011106C0D9016C916F7174
:1007D000C6010E941102F701208130E0A5E03595A5
:1007E0002795AA95E1F721303105B9F03CF4232B88
:1007F00009F5109237016092380113C0223031059B
:1008000099F023303105B1F410923701609238012C
:1008100050923601409235010DC01092380160921D
:1008200037015092360106C01092360160923801AD
:1008300050923701F50131972081D5018C91B0E8B4
:100840008B9FC0011124820F911DF601918380833B
:10085000772029F0F40132972081318102C020E015
:1008600030E0820F931FD4018D939D934D01F601CB
:1008700033832283E0903201F090330180819181B3
:10088000E80EF91EF0923301E092320180913401BA
:100890008F5F809334017394F9E0CF0ED11C23E075
:1008A000A20EB11C71128BCF8091390190913A0147
:1008B000009731F00E9432081092330110923201F9
:1008C000E114F10409F4E6C08701000F111F000FC5
:1008D000111FC8010E949D0790933A01809339012E
:1008E000009751F0A80160E070E00E94EA08F092E1
:1008F0003301E0923201CEC01092330110923201E6
:10090000C9C08A81982F9F7109F48FC085FBBB24D1
:10091000B0F8092F000F000F21E02093180110E01C
:10092000E92EF12C86FBAA24A0F886FF27C0C80177
:100930000E949D076C01009729F0A80160E070E01B
:100940000E94EA08BB2039F0209132013091330136
:100950002E193F0902C020E030E0220F331F220F82
:10096000331F6091390170913A01620F731FA80122
:10097000C6010E94CF08B11077C018C0BB20B1F0EB
:100980008091390190913A014091320150913301A7
:100990004E195F09440F551F440F551FBC01800FAE
:1009A000911F0E94D80880E090E02EC08090320114
:1009B000909033018E189F088091390190913A01EF
:1009C000A401440F551F440F551FBC01600F711F38
:1009D0000E94D808AA2091F0880C991C880C991CB8
:1009E0008091390190913A01A801B601880D991DB5
:1009F0000E94CF08C6010E94320815C080913201C2
:100A0000909133018E199F09880F991F880F991FA4
:100A10002091390130913A01A80160E070E0820F25
:100A2000931F0E94EA08109218014091340150E08F
:100A300061E070E08AE191E060960FB6F894DEBF65
:100A40000FBECDBFDF91CF911F910F91FF90EF901F
:100A5000DF90CF90BF90AF909F908F907F906F90DE
:100A60005F904F900C94EA088091390190913A017F
:100A700040913201509133014E195F09440F551FC7
:100A8000440F551FBC01800F911F0E94D808812C74
:100A9000912CA2CF60960FB6F894DEBF0FBECDBFEB
:100AA000DF91CF911F910F91FF90EF90DF90CF904A
:100AB000BF90AF909F908F907F906F905F904F907E
:100AC00008951F920F920FB60F9211242F933F9308
:100AD0008F939F93AF93BF938091C5019091C6016F
:100AE000A091C701B091C8013091C40123E0230F48
:100AF0002D3720F40196A11DB11D05C026E8230F56
:100B00000296A11DB11D2093C4018093C50190934D
:100B1000C601A093C701B093C8018091C90190910B
:100B2000CA01A091CB01B091CC010196A11DB11DCC
:100B30008093C9019093CA01A093CB01B093CC01DB
:100B4000BF91AF919F918F913F912F910F900FBEC9
:100B50000F901F9018951F920F920FB60F921124AD
:100B60002F933F934F935F936F937F938F939F93B5
:100B7000AF93BF93EF93FF938091B900887F803646
:100B800009F49CC068F5883209F45BC090F48031A8
:100B900009F454C038F4882309F4F6C0883009F405
:100BA0004DC0F6C0883109F44CC0803209F45DC0F4
:100BB000EFC0803409F468C048F4803309F455C0AC
:100BC000883309F0E5C08093A001D8C0803509F4CE
:100BD0004FC0883509F45DC0883409F0D9C0D6C04B
:100BE000883909F4C7C0A8F4883709F467C038F415
:100BF000883609F463C0803709F460C0C9C08838FA
:100C000009F4B8C0803909F45FC0803809F0C0C069
:100C10005BC0803B09F486C038F4803A09F466C0B2
:100C2000883A09F47FC0B4C0803C09F4A7C0883C6E
:100C300009F4A4C0883B09F48AC0AAC08091C3010A
:100C400010C09091C2018091C101981770F5E09198
:100C5000C20181E08E0F8093C201F0E0EF55FE4F9C
:100C600080818093BB0085EC86C08093A0018EC0FC
:100C7000E091C20181E08E0F8093C2018091BB00A0
:100C8000F0E0EF55FE4F80839091C2018091C10149
:100C90006EC0E091C20181E08E0F8093C20180910D
:100CA000BB00F0E0EF55FE4F80838091CE018111B3
:100CB0006DC081E08093CD0184EA61C083E08093C0
:100CC000CF0110929F01CFCF80919F01803208F019
:100CD00051C0E0919F0181E08E0F80939F01809130
:100CE000BB00F0E0E158FE4F8083BDCF85EC8093E0
:100CF000BC001092CF0180919F01803230F4E091CE
:100D00009F01F0E0E158FE4F108260919F0170E07A
:100D1000E091D401F091D5018FE791E0099510920F
:100D20009F0136C084E08093CF0110927E01109223
:100D30007D01E091D601F091D701099580917D0167
:100D4000811105C081E080937D0110925D01E091E9
:100D50007E0181E08E0F80937E01F0E0E35AFE4F2A
:100D600080818093BB0090917E0180917D019817D6
:100D700008F479CF85E88093BC000AC085EC8093A5
:100D8000BC001092CF0104C01092A0010E94540137
:100D9000FF91EF91BF91AF919F918F917F916F9153
:100DA0005F914F913F912F910F900FBE0F901F9029
:100DB00018951092DE011092DD0188EE93E0A0E01C
:100DC000B0E08093DF019093E001A093E101B09344
:100DD000E2018AE091E09093DC018093DB01E7EE91
:100DE000F1E01182108213821282399682E0EF3292
:100DF000F807B9F70895789484B5826084BD84B506
:100E0000816084BD85B5826085BD85B5816085BD05
:100E100080916E00816080936E00109281008091BD
:100E20008100826080938100809181008160809345
:100E30008100809180008160809380008091B1006A
:100E400084608093B1008091B00081608093B00095
:100E500080917A00846080937A0080917A00826029
:100E600080937A0080917A00816080937A008091EB
:100E70007A00806880937A001092C10084E88093A1
:100E8000BA008EEC90E09093D7018093D6018AED62
:100E900090E09093D5018093D4011092D3011092E9
:100EA000D2011092D1011092D0011092CF01C1E075
:100EB000C093CE011092CD0182E10E94880083E1AF
:100EC0000E9488008091B9008E7F8093B900809144
:100ED000B9008D7F8093B90088E48093B80085E4E1
:100EE0008093BC008EE492E09093D9018093D80166
:100EF000C093DA010E94FF010E943902C0E0D0E0F5
:100F00000E942F016B017C010E942F01DC01CB01AB
:100F10008C199D09AE09BF09883E9340A105B10512
:100F200098F3209769F30E940000EACF0895EE0F2E
:100F3000FF1F0590F491E02D0994CF93DF93823049
:100F4000910510F482E090E0E0913102F0913202DC
:100F500020E030E0C0E0D0E0309711F140815181D5
:100F600048175907C0F04817590761F482819381E7
:100F7000209719F09B838A832BC090933202809331
:100F8000310226C02115310519F04217530718F414
:100F90009A01BE01DF01EF010280F381E02DDCCF79
:100FA0002115310509F1281B390B2430310590F446
:100FB00012968D919C9113976115710521F0FB019B
:100FC0009383828304C09093320280933102FD01A7
:100FD000329644C0FD01E20FF31F8193919322509A
:100FE00031092D933C933AC020912F023091300269
:100FF000232B41F420910201309103013093300200
:1010000020932F022091000130910101211531051B
:1010100041F42DB73EB74091040150910501241BC6
:10102000350BE0912F02F0913002E217F307A0F4A4
:101030002E1B3F0B2817390778F0AC014E5F5F4F2E
:101040002417350748F04E0F5F1F5093300240932E
:101050002F028193919302C0E0E0F0E0CF01DF9195
:10106000CF9108950F931F93CF93DF93009709F4C7
:101070008CC0FC01329713821282009131021091D0
:1010800032020115110581F420813181820F931FF5
:1010900020912F02309130022817390779F5F0930B
:1010A0003002E0932F0271C0D80140E050E0AE174B
:1010B000BF0750F412962D913C911397AD01211565
:1010C000310509F1D901F3CF9D01DA013383228380
:1010D00060817181860F971F8217930769F4EC0175
:1010E00028813981260F371F2E5F3F4F31832083A0
:1010F0008A819B8193838283452B29F4F09332026A
:10110000E093310242C01396FC93EE931297ED01E7
:10111000499159919E01240F351FE217F30771F48D
:1011200080819181840F951F029611969C938E93D6
:101130008281938113969C938E931297E0E0F0E066
:10114000D80112968D919C911397009719F0F80190
:101150008C01F6CF8D919C9198012E5F3F4F820FAD
:10116000931F20912F02309130022817390769F41C
:10117000309729F4109232021092310202C0138289
:1011800012821093300200932F02DF91CF911F91B2
:101190000F91089581E090E0F8940C94F108FB0120
:1011A000DC0102C001900D9241505040D8F70895E3
:1011B0006817790768F4FB01DC01E40FF51FA40F41
:1011C000B51F02C002900E9241505040D8F70895CA
:1011D0000C94CF08DC0101C06D9341505040E0F702
:1011E000089510E0CDE5D0E004C0FE010E9497070D
:0C11F0002196CE35D107C9F7F894FFCF47
:1011FC0000003302800000000000C601B201D801DB
:08120C008601AA019601870189
:00000001FF
