:100000000C945E000C9486000C9486000C94860080
:100010000C9486000C9486000C9486000C94860048
:100020000C9486000C9486000C9486000C94860038
:100030000C9486000C9486000C9486000C94860028
:100040000C945A050C9486000C9486000C9486003F
:100050000C9486000C9486000C9486000C94860008
:100060000C94A4050C9486000000000024002700D6
:100070002A0000000000250028002B0004040404CE
:100080000404040402020202020203030303030342
:10009000010204081020408001020408102001021F
:1000A00004081020000000080002010000030407FB
:1000B0000000000000000000D2068F0711241FBEC0
:1000C000CFEFD8E0DEBFCDBF11E0A0E0B1E0EEEEB3
:1000D000F1E102C005900D92A831B107D9F722E0F5
:1000E000A8E1B1E001C01D92A233B207E1F710E030
:1000F000CDE5D0E004C02197FE010E949007CC35E9
:10010000D107C9F70E94F4060C94EA080C94000089
:1001100090E0FC01EC55FF4F2491FC01E057FF4FAC
:100120003491FC01E458FF4FE491EE23B1F1222316
:1001300039F1233091F038F42130A9F0223001F563
:1001400084B58F7D12C0273091F02830A1F0243083
:10015000B9F4809180008F7D03C0809180008F77FB
:10016000809380000DC084B58F7784BD09C08091D5
:10017000B0008F7703C08091B0008F7D8093B00076
:10018000F0E0EE0FFF1FEE58FF4FA591B4918FB72F
:10019000F894EC913E2B3C938FBF0895E0915A0167
:1001A000F0915B01309729F01092D0011092CF01AD
:1001B00009940895CF93DF93AC01E091D701F091BA
:1001C000D8013097F1F09091D2018091D101981728
:1001D000C0F090E0292F30E02617370754F4D901FA
:1001E000A65CBE4FEA01C20FD31F88818C939F5F2C
:1001F000F1CF1092D2016093D101CB01DF91CF9169
:100200000994DF91CF910895CF92DF92EF92FF9200
:100210000F931F93CF93DF936C017A018B01C0E0A2
:10022000D0E0CE15DF0589F0D8016D918D01D601A2
:10023000ED91FC910190F081E02DC6010995892B8B
:1002400011F47E0102C02196ECCFC701DF91CF915E
:100250001F910F91FF90EF90DF90CF9008953FB7DF
:10026000F8948091C8019091C901A091CA01B09100
:10027000CB0126B5A89B05C02F3F19F00196A11D03
:10028000B11D3FBFBA2FA92F982F8827820F911D2C
:10029000A11DB11DBC01CD0142E0660F771F881F73
:1002A000991F4A95D1F7089585ED8093BC00809100
:1002B000BC0084FDFCCF1092CE01089540917C01DA
:1002C000262F30E0240F311D21323105DCF420913E
:1002D000CE012430C9F4FC0180E090E0861758F488
:1002E00030917C012191DC01A45ABE4FA30FB11DB6
:1002F0002C930196F3CF80917C01680F60937C0171
:1003000080E0089581E0089582E008950895E091E5
:10031000D2018091D101E81730F4F0E0E65CFE4FA5
:10032000808190E008958FEF9FEF08959091D20122
:100330008091D101981750F4E92FF0E0E65CFE4F70
:10034000208130E09F5F9093D20102C02FEF3FEFFA
:10035000C90108958091D10190E02091D201821BC2
:1003600091090895CF93DF9300D0CDB7DEB7CB01CD
:10037000642F49835A830E945E014981842F5A81E8
:10038000952F0F900F90DF91CF910895CF93DF932A
:100390001F92CDB7DEB7698361E0CE0101960E945E
:1003A0005E0181E090E00F90DF91CF910895089574
:1003B00080E090E00895880F991F880F991FE091C1
:1003C0003801F091390120913701E80FF91FDF0161
:1003D000A20FB11D7C9380913601DF01A80FB11DE2
:1003E0006C9380913501DF01A80FB11D5C934083B0
:1003F00080E008951092340110923301109232017E
:10040000E2E2F1E0AAE1B1E0119211921D9281E0E5
:10041000E233F807C9F70895DC0170E0FB01E0570B
:10042000FF4FE4911896EC93189764587F4FFB01A7
:100430008491E82FF0E0EE0FFF1FEE58FF4F8591FB
:10044000949115969C938E931497FB016491E62FDB
:10045000F0E0EE0FFF1FE859FF4F8591949117963A
:100460009C938E93169708950F931F93CF9306EE48
:1004700011E0C0E06C2FC8010E940C02CF5F075F43
:100480001F4FC830B9F7CF911F910F9108950E9467
:10049000C3084F925F926F927F928F929F92AF921A
:1004A000BF92CF92DF92EF92FF920F931F93CF9361
:1004B000DF93CDB7DEB760970FB6F894DEBF0FBEFF
:1004C000CDBF7C01B12C0B2D10E00E151F059CF447
:1004D0002FE08AED91E02B1550F00E949601E1E0AB
:1004E000F0E0EC0FFD1FE00FF11F808302C00E94BF
:1004F0009601B394E8CF8981982F9F70933009F4C7
:10050000D9C030F4913009F42EC1923041F0BBC211
:10051000943009F475C0953009F4ECC1B4C28091EF
:1005200019018111B0C2809118018111ACC281E022
:100530008093190190E009E080913401981708F048
:100540005CC0292F30E0A901465E5E4FDA018C9134
:10055000882309F44EC0E0903801F0903901029FE1
:10056000D001039FB00D1124AA51BE4F1696ED91F4
:10057000FC911797208118968C911897822B808375
:1005800014966D917C91159718968C9118972D91D2
:100590003C911197220F331F220F331F1296ED91BA
:1005A000FC911397EE0FFF1FEE0FFF1FEE0DFF1DC7
:1005B000DB01FC90182F10951F21C82ECF28FFB605
:1005C000F8942E0F3F1FE217F30789F0E190DB014B
:1005D00088E0CC9200C0E7FE1C93EE0C00C000C087
:1005E00000C008F41C9300C08A9599F7ECCFFFBEB9
:1005F0007894DA011C929F5F9FCF1092190143C239
:100600004A81CB800C818D819091180191113BC260
:1006100090E0A0E0B0E015E1880F991FAA1FBB1F72
:100620001A95D1F710E020E030E05EE0000F111FD6
:10063000221F331F5A95D1F7800F911FA21FB31F9E
:10064000840F911DA11DB11DD12CE12CF12C67E06F
:10065000CC0CDD1CEE1CFF1C6A95D1F7C80ED91E10
:10066000EA1EFB1EC114D104E104F10489F4409197
:10067000320150913301440F551F440F551F60E064
:1006800070E080913801909139010E94E308C6C161
:1006900000E010E0809132019091330108171907B2
:1006A00008F0BCC1B701A601C8010E94DB010F5FC1
:1006B0001F4FF0CFEA809B815C814D818E810F813D
:1006C000209118012111DFC1F12CB0E89B9FE00CB3
:1006D000F11C11242091320130913301E216F3060E
:1006E00068F510E020E030E065E1000F111F221FE7
:1006F000331F6A95D1F790E0A0E0B0E07EE0880F6C
:10070000991FAA1FBB1F7A95D1F7080F191F2A1F1F
:100710003B1F050F111D211D311D50E060E070E0F1
:10072000E7E0440F551F661F771FEA95D1F7400F8A
:10073000511F621F731FC7010E94DB01209134010A
:10074000A2E2B1E080E090E0821708F09CC1FC01D9
:100750004D915D910196E416F506B0F7E65EFE4F09
:1007600081E0808390C1813009F08DC1E2E0EE1517
:1007700008F089C10091D9010E94FA0101110E947B
:1007800034028BEAE89E812D1124182F1695B2E2CF
:100790008B2EB1E09B2E86EEC82E81E0D82E5E0116
:1007A000F4E0AF0EB11C712C6624639492E0592ED4
:1007B00023E0422E9501225031097901011106C032
:1007C000D9016C916F71C6010E940C02F701208162
:1007D00030E0A5E035952795AA95E1F72130310560
:1007E000A9F03CF4232BF9F4109236016092370102
:1007F00011C02230310589F023303105A1F4109267
:10080000370160923601409235010DC010923701D8
:10081000609236015092350106C010923501609207
:10082000370150923601F50131972081D5018C9125
:10083000B0E88B9FC0011124820F911DF6019183B6
:100840008083772029F0F40132972081318102C022
:1008500020E030E0820F931FD4018D939D934D01D2
:10086000F60133832283E0903201F09033018081DE
:100870009181E80EF91EF0923301E09232018091ED
:1008800034018F5F809334017394F9E0CF0ED11C53
:1008900023E0A20EB11C71128DCF8091380190918E
:1008A0003901009731F00E942B0810923301109209
:1008B0003201E114F10409F4E6C08701000F111FB1
:1008C000000F111FC8010E94960790933901809371
:1008D0003801009751F0A80160E070E00E94E30841
:1008E000F0923301E0923201CEC0109233011092A7
:1008F0003201C9C08A81982F9F7109F48FC085FB8E
:10090000BB24B0F8092F000F000F21E0209318013D
:1009100010E0E92EF12C86FBAA24A0F886FF27C060
:10092000C8010E9496076C01009729F0A80160E0B9
:1009300070E00E94E308BB2039F020913201309131
:1009400033012E193F0902C020E030E0220F331F8F
:10095000220F331F6091380170913901620F731FAC
:10096000A801C6010E94C808B11077C018C0BB20FA
:10097000B1F080913801909139014091320150914C
:1009800033014E195F09440F551F440F551FBC0119
:10099000800F911F0E94D10880E090E02EC08090CF
:1009A0003201909033018E189F0880913801909108
:1009B0003901A401440F551F440F551FBC01600F9E
:1009C000711F0E94D108AA2091F0880C991C880CF4
:1009D000991C8091380190913901A801B601880DC8
:1009E000991D0E94C808C6010E942B0815C080915D
:1009F0003201909133018E199F09880F991F880F3A
:100A0000991F2091380130913901A80160E070E010
:100A1000820F931F0E94E308109218014091340145
:100A200050E061E070E08AE191E060960FB6F894E2
:100A3000DEBF0FBECDBFDF91CF911F910F91FF9011
:100A4000EF90DF90CF90BF90AF909F908F907F906E
:100A50006F905F904F900C94E308809138019091D3
:100A6000390140913201509133014E195F09440F11
:100A7000551F440F551FBC01800F911F0E94D108C4
:100A8000812C912CA2CF60960FB6F894DEBF0FBEDA
:100A9000CDBFDF91CF911F910F91FF90EF90DF902D
:100AA000CF90BF90AF909F908F907F906F905F900E
:100AB0004F9008951F920F920FB60F9211242F930B
:100AC0003F938F939F93AF93BF938091C401909175
:100AD000C501A091C601B091C7013091C30123E0C7
:100AE000230F2D3720F40196A11DB11D05C026E866
:100AF000230F0296A11DB11D2093C3018093C40151
:100B00009093C501A093C601B093C7018091C8011D
:100B10009091C901A091CA01B091CB010196A11D8C
:100B2000B11D8093C8019093C901A093CA01B093ED
:100B3000CB01BF91AF919F918F913F912F910F90DA
:100B40000FBE0F901F9018951F920F920FB60F9225
:100B500011242F933F934F935F936F937F938F93C2
:100B60009F93AF93BF93EF93FF938091B900887FDA
:100B7000803609F49CC068F5883209F45BC090F4B3
:100B8000803109F454C038F4882309F4F6C0883061
:100B900009F44DC0F6C0883109F44CC0803209F424
:100BA0005DC0EFC0803409F468C048F4803309F4B4
:100BB00055C0883309F0E5C080939F01D8C08035C7
:100BC00009F44FC0883509F45DC0883409F0D9C0F4
:100BD000D6C0883909F4C7C0A8F4883709F467C0BB
:100BE00038F4883609F463C0803709F460C0C9C09E
:100BF000883809F4B8C0803909F45FC0803809F03A
:100C0000C0C05BC0803B09F486C038F4803A09F468
:100C100066C0883A09F47FC0B4C0803C09F4A7C01C
:100C2000883C09F4A4C0883B09F48AC0AAC080911A
:100C3000C20110C09091C1018091C001981770F558
:100C4000E091C10181E08E0F8093C101F0E0E05698
:100C5000FE4F80818093BB0085EC86C080939F010E
:100C60008EC0E091C10181E08E0F8093C10180911F
:100C7000BB00F0E0E056FE4F80839091C10180916F
:100C8000C0016EC0E091C10181E08E0F8093C1016F
:100C90008091BB00F0E0E056FE4F80838091CD0153
:100CA00081116DC081E08093CC0184EA61C083E052
:100CB0008093CE0110929E01CFCF80919E01803211
:100CC00008F051C0E0919E0181E08E0F80939E015B
:100CD0008091BB00F0E0E258FE4F8083BDCF85ECF1
:100CE0008093BC001092CE0180919E01803230F43E
:100CF000E0919E01F0E0E258FE4F108260919E016B
:100D000070E0E091D301F091D4018EE791E0099574
:100D100010929E0136C084E08093CE0110927D0136
:100D200010927C01E091D501F091D6010995809156
:100D30007C01811105C081E080937C0110925C01EF
:100D4000E0917D0181E08E0F80937D01F0E0E45A17
:100D5000FE4F80818093BB0090917D0180917C014A
:100D6000981708F479CF85E88093BC000AC085EC19
:100D70008093BC001092CE0104C010929F010E948B
:100D80005401FF91EF91BF91AF919F918F917F910E
:100D90006F915F914F913F912F910F900FBE0F90E8
:100DA0001F9018951092DD011092DC0188EE93E0FF
:100DB000A0E0B0E08093DE019093DF01A093E0011A
:100DC000B093E1018AE091E09093DB018093DA0136
:100DD000E6EEF1E01182108213821282399682E0EF
:100DE000EE32F807B9F70895789484B5826084BD2F
:100DF00084B5816084BD85B5826085BD85B581601F
:100E000085BD80916E00816080936E00109281009C
:100E10008091810082608093810080918100816057
:100E20008093810080918000816080938000809118
:100E3000B10084608093B1008091B00081608093A4
:100E4000B00080917A00846080937A0080917A006B
:100E5000826080937A0080917A00816080937A002A
:100E600080917A00806880937A001092C10084E8B3
:100E70008093BA008EEC90E09093D6018093D501D8
:100E80008AED90E09093D4018093D3011092D20127
:100E90001092D1011092D0011092CF011092CE0188
:100EA000C1E0C093CD011092CC0182E10E94880084
:100EB00083E10E9488008091B9008E7F8093B90001
:100EC0008091B9008D7F8093B90088E48093B80049
:100ED00085E48093BC0089E492E09093D8018093EC
:100EE000D701C093D9010E94FA010E943402C0E0E8
:100EF000D0E00E942F016B017C010E942F01DC01D8
:100F0000CB018C199D09AE09BF09883E9340A1050C
:100F1000B10598F3209769F30E940000EACF089585
:100F2000EE0FFF1F0590F491E02D0994CF93DF930E
:100F30008230910510F482E090E0E0913002F0916F
:100F4000310220E030E0C0E0D0E0309711F1408184
:100F5000518148175907C0F04817590761F4828139
:100F60009381209719F09B838A832BC09093310241
:100F70008093300226C02115310519F0421753071E
:100F800018F49A01BE01DF01EF010280F381E02D28
:100F9000DCCF2115310509F1281B390B243031052F
:100FA00090F412968D919C9113976115710521F023
:100FB000FB019383828304C09093310280933002BB
:100FC000FD01329644C0FD01E20FF31F819391931E
:100FD000225031092D933C933AC020912E0230913A
:100FE0002F02232B41F42091020130910301309311
:100FF0002F0220932E022091000130910101211532
:10100000310541F42DB73EB74091040150910501DF
:10101000241B350BE0912E02F0912F02E217F3070B
:10102000A0F42E1B3F0B2817390778F0AC014E5F58
:101030005F4F2417350748F04E0F5F1F50932F0264
:1010400040932E028193919302C0E0E0F0E0CF0143
:10105000DF91CF9108950F931F93CF93DF93009764
:1010600009F48CC0FC013297138212820091300285
:10107000109131020115110581F420813181820F17
:10108000931F20912E0230912F022817390779F5EE
:10109000F0932F02E0932E0271C0D80140E050E09F
:1010A000AE17BF0750F412962D913C911397AD01E6
:1010B0002115310509F1D901F3CF9D01DA013383FF
:1010C000228360817181860F971F8217930769F4CD
:1010D000EC0128813981260F371F2E5F3F4F318366
:1010E00020838A819B8193838283452B29F4F0930B
:1010F0003102E093300242C01396FC93EE931297B4
:10110000ED01499159919E01240F351FE217F30714
:1011100071F480819181840F951F029611969C93A2
:101120008E938281938113969C938E931297E0E025
:10113000F0E0D80112968D919C911397009719F0C9
:10114000F8018C01F6CF8D919C9198012E5F3F4F55
:10115000820F931F20912E0230912F0228173907FA
:1011600069F4309729F4109231021092300202C0D3
:101170001382128210932F0200932E02DF91CF91DF
:101180001F910F91089581E090E0F8940C94EA0883
:10119000FB01DC0102C001900D9241505040D8F794
:1011A00008956817790768F4FB01DC01E40FF51F67
:1011B000A40FB51F02C002900E9241505040D8F7C4
:1011C00008950C94C808DC0101C06D934150504053
:1011D000E0F7089510E0CDE5D0E004C0FE010E94E4
:0E11E00090072196CE35D107C9F7F894FFCFBE
:1011EE0000003202800000000000C601B201D801EA
:0811FE008601AA019601870198
:00000001FF
